:040000004BEF03F0CF
:060008005F82E2EFE7F069
:100018005F80D8CF8CF0E8CF8DF0E0CF8EF0E9CFBD
:100028008FF0EACF90F0D9CF91F0DACF92F0F6CFF7
:1000380093F0F7CF94F0F8CF95F0F5CF96F00E0146
:1000480033AB29EF00F02BEF00F0CBEF02F09096E6
:10005800339BE30ED46EB00ED36E0001BF2BA551B7
:10006800A611D8B43AEF00F03CEF00F0B5EF00F07D
:1000780090A041EF00F043EF00F0B5EF00F0A507C6
:10008800D8A0A60701015E2B0001B351D8B44FEFE9
:1000980000F051EF00F059EF00F0030EB36157EF95
:1000A80000F059EF00F05AEF00F0B32B010E7B6F10
:1000B800030E7C6F5C0E7D6FF20E7E6F000E806FFC
:1000C800050E7F6F06EC04F000017B517C11D8A46B
:1000D80070EF00F072EF00F08EEF00F0060E7B6F0D
:1000E800030E7C6F680E7D6FF20E7E6F000E806FC0
:1000F800050E7F6F06EC04F000017B517C11D8A43B
:1001080088EF00F08AEF00F08EEF00F0C2EC1DF0EF
:1001180001015F2B01015E510001876F886B0101AE
:100128005F510001896F8A6B020E8927000E8A23AE
:100138008751895D8A51800A8B6F8851800A8B5953
:10014800D8A0A9EF00F0ABEF00F0ADEF00F0B5EFED
:1001580000F0000E0101396F000E0001A66F000EBD
:10016800A56F90A4BAEF00F0BCEF00F006EF02F024
:100178008DA8C1EF00F0C3EF00F0DEEF00F0010141
:1001880022511A1907E123511B19D8A4CEEF00F008
:10019800D0EF00F0DAEF00F08D98000E1B6F000E24
:1001A8001A6F0A4B0B2B632B10EF01F01A4B1B2B0A
:1001B80010EF01F08DB8E3EF00F0E5EF00F010EF7D
:1001C80001F0010112510A1907E113510B19D8A4C2
:1001D800F0EF00F0F2EF00F00EEF01F00001C65171
:1001E8000101635DD8B0FBEF00F0FDEF00F006EF12
:1001F80001F08D881A4B1B2B000E0B6F000E0A6F37
:1002080010EF01F0010E12250A6F000E13210B6F7B
:1002180010EF01F00A4B0B2B8DAA15EF01F017EF29
:1002280001F032EF01F001012051181907E12151C5
:100238001919D8A422EF01F024EF01F02EEF01F0F4
:100248008D9A000E196F000E186F084B092B622B40
:1002580062EF01F0184B192B62EF01F08DBA37EFFE
:1002680001F039EF01F062EF01F0010110510819B6
:1002780007E111510919D8A444EF01F046EF01F044
:1002880060EF01F06651625DD8B04DEF01F04FEFBD
:1002980001F058EF01F08D8A184B192B000E096FE9
:1002A800000E086F62EF01F0010E1025086F000EB6
:1002B8001121096F62EF01F0084B092B8DAC67EF34
:1002C80001F069EF01F084EF01F001011E511619E8
:1002D80007E11F511719D8A474EF01F076EF01F068
:1002E80080EF01F08D9C000E176F000E166F064B05
:1002F800072B612BB4EF01F0164B172BB4EF01F06D
:100308008DBC89EF01F08BEF01F0B4EF01F0010132
:100318000E51061907E10F510719D8A496EF01F0FD
:1003280098EF01F0B2EF01F06551615DD8B09FEF31
:1003380001F0A1EF01F0AAEF01F08D8C164B172BFD
:10034800000E076F000E066FB4EF01F0010E0E25C8
:10035800066F000E0F21076FB4EF01F0064B072B55
:100368008FA6B9EF01F0BBEF01F0D6EF01F0010164
:100378001C51141907E11D511519D8A4C6EF01F035
:10038800C8EF01F0D2EF01F08F96000E156F000E46
:10039800146F044B052B602B06EF02F0144B152B42
:1003A80006EF02F08FB6DBEF01F0DDEF01F006EFAC
:1003B80002F001010C51041907E10D510519D8A4E7
:1003C800E8EF01F0EAEF01F004EF02F06451605D3C
:1003D800D8B0F1EF01F0F3EF01F0FCEF01F08F86F8
:1003E800144B152B000E056F000E046F06EF02F07C
:1003F800010E0C25046F000E0D21056F06EF02F0AB
:10040800044B052B630E0001BE19D8A40EEF02F0B1
:1004180010EF02F014EF02F0000EBF6FCBEF02F006
:10042800BE05D8A41AEF02F01CEF02F02CEF02F080
:10043800B651BF19D8A423EF02F025EF02F02CEF34
:1004480002F0000EBF6F8A86020EBE6FCBEF02F07D
:10045800020EBE19D8A433EF02F035EF02F045EFD3
:1004680002F0B451BF19D8A43CEF02F03EEF02F0FD
:1004780045EF02F0000EBF6F8A96030EBE6FCBEFFA
:1004880002F0030EBE19D8A44CEF02F04EEF02F0B2
:100498005EEF02F0B551BF19D8A455EF02F057EF3F
:1004A80002F05EEF02F0000EBF6F8A88040EBE6F86
:1004B800CBEF02F0040EBE19D8A465EF02F067EF87
:1004C80002F077EF02F0B451BF19D8A46EEF02F032
:1004D80070EF02F077EF02F0000EBF6F8A98050EFA
:1004E800BE6FCBEF02F0050EBE19D8A47EEF02F066
:1004F80080EF02F090EF02F0B551BF19D8A487EF52
:1005080002F089EF02F090EF02F0000EBF6F8A8AC6
:10051800060EBE6FCBEF02F0060EBE19D8A497EFF9
:1005280002F099EF02F0A9EF02F0B451BF19D8A474
:10053800A0EF02F0A2EF02F0A9EF02F0000EBF6FE9
:100548008A9A070EBE6FCBEF02F0070EBE19D8A429
:10055800B0EF02F0B2EF02F0CBEF02F0BF51876FBD
:10056800886B010126510001871909E10101275112
:1005780000018819D8A4C3EF02F0C5EF02F0CBEF51
:1005880002F0000EBF6F010EBE6FCBEF02F00E013E
:1005980038A1D1EF02F0D3EF02F0D8EF02F0909635
:1005A8000101572B0E01389138A5DDEF02F0DFEF7E
:1005B80002F033EF03F090963895F00EC86EDC0E1B
:1005C800C76E0101562B56515B5DD8B0EEEF02F0B5
:1005D800F0EF02F024EF03F00001B051D8A4F7EFD8
:1005E80002F0F9EF02F024EF03F0010EB06F000EF5
:1005F8000101566FC9903D51D8B405EF03F007EFDC
:1006080003F00BEF03F0010E3C6F33EF03F04F5193
:10061800D8B411EF03F013EF03F017EF03F0010E56
:100628004E6F33EF03F00001AC51D8B41EEF03F066
:1006380020EF03F033EF03F0000EAC6F33EF03F05D
:100648000001B051D8B42BEF03F02DEF03F033EFD6
:1006580003F0000E0101566FC99033EF03F096C006
:10066800F5FF95C0F8FF94C0F7FF93C0F6FF92C05E
:10067800DAFF91C0D9FF90C0EAFF8FC0E9FF8EC0B2
:10068800E0FF8DC0E8FF8CC0D8FF5F9010005DEFE1
:1006980010F08CC194F18DC195F18EC196F18FC186
:1006A80097F101019007D8A09107902906E19129B7
:1006B800D8A461EF03F063EF03F071EF03F0000ECD
:1006C8008D6F000E8C6F05EF04F00101944B952B94
:1006D800964B972B9007D8A0910794C1F6FF95C128
:1006E800F7FF000EF86E0D0EF76403D00800F55002
:1006F80005D0F6CFE9FFF7CFEAFFEF500009D8B4ED
:1007080088EF03F08AEF03F0D9EF03F096C1F6FF04
:1007180097C1F7FF000EF86E0D0EF76403D00800BE
:10072800F55005D0F6CFE9FFF7CFEAFFEF50000903
:10073800D8B4A1EF03F0A3EF03F0D9EF03F0010160
:1007480090519111D8B4ABEF03F0ADEF03F0D9EFAE
:1007580003F096C1F6FF97C1F7FF000EF86E0D0E75
:10076800F76403D00800F55005D0F6CFE9FFF7CFBE
:10077800EAFFEF500101926F94C1F6FF95C1F7FFB0
:10078800000EF86E0D0EF76403D00800F55005D082
:10079800F6CFE9FFF7CFEAFFEF509219D8B4D7EFB9
:1007A80003F0D9EF03F069EF03F094C1F6FF95C1A8
:1007B800F7FF000EF86E0D0EF76403D00800F55031
:1007C80005D0F6CFE9FFF7CFEAFFEF500101926FAE
:1007D80096C1F6FF97C1F7FF000EF86E0D0EF7648D
:1007E80003D00800F55005D0F6CFE9FFF7CFEAFFB0
:1007F800EF500101936F9351925D8C6F8D6BD8A070
:100808008D0712007BC083F07CC084F07DC085F02A
:100818007EC086F000017F07D8A080077F2906E107
:100828008029D8A41AEF04F01CEF04F02AEF04F092
:10083800000E7C6F000E7B6FBEEF04F00001834B4F
:10084800842B854B862B7F07D8A0800783C0F6FFB3
:1008580084C0F7FF000EF86E0D0EF76403D0080091
:10086800F55005D0F6CFE9FFF7CFEAFFEF500009C2
:10087800D8B441EF04F043EF04F092EF04F085C0E0
:10088800F6FF86C0F7FF000EF86E0D0EF76403D072
:100898000800F55005D0F6CFE9FFF7CFEAFFEF5093
:1008A8000009D8B45AEF04F05CEF04F092EF04F0BA
:1008B80000017F518011D8B464EF04F066EF04F0B2
:1008C80092EF04F085C0F6FF86C0F7FF000EF86EC1
:1008D8000D0EF76403D00800F55005D0F6CFE9FFF8
:1008E800F7CFEAFFEF500001816F83C0F6FF84C0A5
:1008F800F7FF000EF86E0D0EF76403D00800F550F0
:1009080005D0F6CFE9FFF7CFEAFFEF508119D8B449
:1009180090EF04F092EF04F022EF04F083C0F6FFAA
:1009280084C0F7FF000EF86E0D0EF76403D00800C0
:10093800F55005D0F6CFE9FFF7CFEAFFEF500001F9
:10094800816F85C0F6FF86C0F7FF000EF86E0D0EAA
:10095800F76403D00800F55005D0F6CFE9FFF7CFCC
:10096800EAFFEF500001826F8251815D7B6F7C6BE3
:10097800D8A07C071200000E01019D6F93BFC9EF3C
:1009880004F0C7EF04F0DBEF04F0931F921F911FF0
:10099800901F8F1F8E1F8D1F8C6D000E8D238E2331
:1009A8008F239023912392239323010E9D6F9BBF46
:1009B800E2EF04F0E0EF04F0F2EF04F09B1F9A1F5F
:1009C800991F981F971F961F951F946D000E9523CA
:1009D80096239723982399239A239B23945195111F
:1009E80096119711981199119A119B11D8B4FFEF8C
:1009F80004F001EF05F049EF05F0010E9C6F0FEFD1
:100A080005F0D890943795379637973798379937B0
:100A18009A379B379C2B9BAF14EF05F016EF05F028
:100A280005EF05F094518C5D95518D5996518E596D
:100A380097518F5998519059995191599A51925962
:100A48009B519359D8A02BEF05F02DEF05F03DEF02
:100A580005F094518C5F95518D5B96518E5B975143
:100A68008F5B9851905B9951915B9A51925B9B5126
:100A7800935BD8909B339A33993398339733963353
:100A8800953394339C2F16EF05F09D51D8B44FEF52
:100A980005F051EF05F061EF05F0931F921F911FCC
:100AA800901F8F1F8E1F8D1F8C6D000E8D238E2320
:100AB8008F2390239123922393238CC18CF18DC192
:100AC8008DF18EC18EF18FC18FF190C190F191C1DE
:100AD80091F192C192F193C193F1120001C009F012
:100AE80002C00AF003C00BF004C00CF00506D8A041
:100AF8000606052806E10628D8A485EF05F087EF45
:100B080005F094EF05F0000E026E000E016E24EF62
:100B180006F0094A0A2A0B4A0C2A0506D8A0060636
:100B280009C0F6FF0AC0F7FF000EF86E0D0EF76455
:100B380003D00800F55005D0F6CFE9FFF7CFEAFF5C
:100B4800EF500009D8B4ABEF05F0ADEF05F0FAEFC0
:100B580005F00BC0F6FF0CC0F7FF000EF86E0D0E87
:100B6800F76403D00800F55005D0F6CFE9FFF7CFBA
:100B7800EAFFEF500009D8B4C4EF05F0C6EF05F05E
:100B8800FAEF05F005500610D8B4CDEF05F0CFEF19
:100B980005F0FAEF05F00BC0F6FF0CC0F7FF000EEA
:100BA800F86E0D0EF76403D00800F55005D0F6CFA7
:100BB800E9FFF7CFEAFFEF50076E09C0F6FF0AC05A
:100BC800F7FF000EF86E0D0EF76403D00800F5501D
:100BD80005D0F6CFE9FFF7CFEAFFEF500718D8B4F2
:100BE800F8EF05F0FAEF05F08DEF05F009C0F6FF14
:100BF8000AC0F7FF000EF86E0D0EF76403D0080068
:100C0800F55005D0F6CFE9FFF7CFEAFFEF50076EB2
:100C18000BC0F6FF0CC0F7FF000EF86E0D0EF76460
:100C280003D00800F55005D0F6CFE9FFF7CFEAFF6B
:100C3800EF50086E0850075C016E026AD8A00206E1
:100C48001200000E126E08BE2EEF06F02CEF06F012
:100C580040EF06F0081E071E061E051E041E031E92
:100C6800021E016C000E0222032204220522062223
:100C780007220822010E126E10BE47EF06F045EF5C
:100C880006F057EF06F0101E0F1E0E1E0D1E0C1E4E
:100C98000B1E0A1E096C000E0A220B220C220D22C2
:100CA8000E220F22102209500A100B100C100D10E2
:100CB8000E100F101010D8B464EF06F066EF06F0AF
:100CC800AEEF06F0010E116E74EF06F0D8900936FB
:100CD8000A360B360C360D360E360F361036112AFC
:100CE80010AE79EF06F07BEF06F06AEF06F00950D8
:100CF800015C0A5002580B5003580C5004580D5010
:100D080005580E5006580F50075810500858D8A0CC
:100D180090EF06F092EF06F0A2EF06F00950015EA0
:100D28000A50025A0B50035A0C50045A0D50055AD7
:100D38000E50065A0F50075A1050085AD8901032C1
:100D48000F320E320D320C320B320A320932112EAA
:100D58007BEF06F01250D8B4B4EF06F0B6EF06F009
:100D6800C6EF06F0081E071E061E051E041E031EFB
:100D7800021E016C000E0222032204220522062212
:100D88000722082201C001F002C002F003C003F0EC
:100D980004C004F005C005F006C006F007C007F05F
:100DA80008C008F012000001A987040EAA6F090EF6
:100DB80001019E6F1E0E9D6FE40EE82EFED79D2F3B
:100DC800FCD79E2FFAD700F0040E01018E6F4E0E4D
:100DD800E9EC14F0E40E00D000D0E82EFCD700D0E7
:100DE80000D0300E70EC1FF05E0E01019D6F800E7A
:100DF800E82EFED79D2FFCD700F0300E70EC1FF0C8
:100E0800040E01019D6F1C0EE82EFED79D2FFCD706
:100E180000F0300E70EC1FF0040E01019D6F1C0EE7
:100E2800E82EFED79D2FFCD700F0200E70EC1FF0A7
:100E3800040E01019D6F1C0EE82EFED79D2FFCD7D6
:100E480000F0080E01012A6F280EDEEC1FF0000EDC
:100E58000001AB6F24EC20F01DEC20F0020E010124
:100E6800296F060EDEEC1FF00001AB510809DEEC1D
:100E78001FF0080E0101286F180EDEEC1FF000C2EB
:100E880098F101C299F1000E62EC19F002C298F1D2
:100E980003C299F1010E62EC19F004C298F105C27F
:100EA80099F1020E62EC19F006C298F107C299F1A5
:100EB800030E62EC19F008C298F109C299F1040E08
:100EC80062EC19F00AC298F10BC299F1050E62ECB6
:100ED80019F00CC298F10DC299F1060E62EC19F0E6
:100EE8000EC298F10FC299F1070E62EC19F0F9ECF5
:100EF8001EF01200050E0101906F0F0E8F6FF10E9C
:100F0800E82EFED78F2FFCD7902FFAD7030EF66E58
:100F1800EC0EF76E000EF86E0900F5CF8FF10900A0
:100F2800F5CF90F1090E01018F258C6F000E9021ED
:100F38008D6F9DC08EF144EC1DF0050E0101906F80
:100F48000F0E8F6FF10EE82EFED78F2FFCD7902F44
:100F5800FAD7030EF66EEC0EF76E000EF86E090067
:100F6800F5CF8FF10900F5CF90F10A0E01018F2519
:100F78008C6F000E90218D6F00019E5101018E6FC4
:100F880044EC1DF0050E0101906F0F0E8F6FF10EEE
:100F9800E82EFED78F2FFCD7902FFAD7030EF66EC8
:100FA800EC0EF76E000EF86E0900F5CF8FF1090010
:100FB800F5CF90F10B0E01018F258C6F000E90215B
:100FC8008D6FCAC08EF144EC1DF0050E0101906FC3
:100FD8000F0E8F6FF10EE82EFED78F2FFCD7902FB4
:100FE800FAD7030EF66EEC0EF76E000EF86E0900D7
:100FF800F5CF8FF10900F5CF90F10C0E01018F2587
:101008008C6F000E90218D6F0001CB5101018E6F06
:1010180044EC1DF0050E0101906F0F0E8F6FF10E5D
:10102800E82EFED78F2FFCD7902FFAD71200000E8C
:1010380001018C6FD7A223EF08F025EF08F04FEFDE
:1010480008F0D7A42AEF08F02CEF08F04FEF08F0CB
:10105800D7A631EF08F033EF08F04FEF08F0D7A02C
:1010680038EF08F03AEF08F04FEF08F0D7A83FEF55
:1010780008F041EF08F04FEF08F0D7BE46EF08F050
:1010880048EF08F04FEF08F0D7AC4DEF08F04FEFFE
:1010980008F0B5EF08F0D7A254EF08F056EF08F0C3
:1010A8005DEF08F0D7B05BEF08F05DEF08F062EF96
:1010B80008F0D786D784D788D79ED79CD7B267EF52
:1010C80008F069EF08F06EEF08F0010E8C6FD78218
:1010D800B2EF08F0D7B073EF08F075EF08F07AEFC9
:1010E80008F0020E8C6FD780B2EF08F0D7B67FEF0A
:1010F80008F081EF08F086EF08F0030E8C6FD786B2
:10110800B2EF08F0D7B48BEF08F08DEF08F092EF4C
:1011180008F0040E8C6FD784B2EF08F0D7B897EFB9
:1011280008F099EF08F09EEF08F0050E8C6FD7884D
:10113800B2EF08F0D7BEA3EF08F0A5EF08F0ACEFC8
:1011480008F0D7ACAAEF08F0ACEF08F0B2EF08F05F
:10115800060E8C6FD79ED79CB2EF08F08C51B6EF75
:1011680008F0000E12000101A66F22EE21F011EE28
:101178009AF00B0EDBCFE3FFE806FCE2000E01015C
:10118800A86F000EA76F000EA96F23EF09F0A9053D
:10119800D8A4D1EF08F0D3EF08F016EF09F0D00E7D
:1011A80091258C6F8D6B070E8D23000E8F6F640E4B
:1011B8008E6F7AEC17F001018C518D11D8B4E7EFDE
:1011C80008F0E9EF08F010EF09F091C193F1030E70
:1011D8009317D8A4F2EF08F0F4EF08F010EF09F035
:1011E800D00E91258C6F8D6B070E8D23010E8F6F9E
:1011F800900E8E6F7AEC17F001018C518D11D8A4E6
:1012080008EF09F00AEF09F010EF09F01D0EA72703
:10121800000EA82322EF09F01C0EA727000EA82312
:1012280022EF09F09A0EA925D96EDA6A010EDA22A0
:10123800DF50936F9351A727000EA823A92BFF0E09
:10124800936FFF0E946FA651956F966B93519527E8
:1012580094519623A951976F986B9551975D985122
:10126800800A996F9651800A9959D8A03EEF09F0E3
:1012780040EF09F0CBEF08F0A7C191F1A8C192F1B6
:1012880012008EC194F18FC195F18CC192F18DC17C
:1012980093F19CEF09F094C1F6FF95C1F7FF000E9A
:1012A800F86E0D0EF76403D00800F55005D0F6CFA0
:1012B800E9FFF7CFEAFFEF500A0AD8B466EF09F062
:1012C80068EF09F0C3EF09F094C1F6FF95C1F7FF85
:1012D800000EF86E0D0EF76403D00800F55005D027
:1012E800F6CFE9FFF7CFEAFFEF500D0AD8B47FEF4A
:1012F80009F081EF09F0C3EF09F094C1F6FF95C139
:10130800F7FF000EF86E0D0EF76403D00800F550D5
:1013180005D0F6CFE9FFF7CFEAFFEF500009D8A4D0
:1013280098EF09F09AEF09F09CEF09F0C3EF09F084
:1013380001019451906F9551916F944B952B90C1E9
:10134800F6FF91C1F7FF000EF86E92C1D9FF93C165
:10135800DAFF924B932B0D0EF76403D00800F5507B
:1013680005D0F6CFE9FFF7CFEAFFEF50DF6EDF5089
:10137800D8A4C1EF09F0C3EF09F04FEF09F012004C
:10138800000197519811D8A4CCEF09F0CEEF09F0DD
:10139800D4EF09F097C09BF198C09CF1DDEF09F0FC
:1013A800FF0E972501019B6FFF0E00019821010197
:1013B8009C6F00019BA1E3EF09F0E5EF09F0EFEF67
:1013C80009F097C18CF101018D6B95C18EF196C121
:1013D8008FF13CEC0DF001019CBFF5EF09F0F7EF40
:1013E80009F0F9EF09F0FDEF09F0000E9C6F000E0F
:1013F8009B6F000E9A6F000E996F10EF0AF0000EA7
:101408008D6F200E8C6F95C18EF196C18FF13CECDB
:101418000DF00101994B9A2B9B51995D9A51800AC5
:10142800986F9C51800A9859D8A01DEF0AF01FEFB9
:101438000AF003EF0AF000019BB125EF0AF027EF4D
:101448000AF031EF0AF097C18CF101018D6B95C15B
:101458008EF196C18FF13CEC0DF0010E010199253A
:10146800956F000E9A21966F1200000E0101A56F6C
:10147800000EA46F000E496F000E4A6FCAC092F1A9
:10148800CBC093F1000E956F0A0E946FF7EC15F030
:1014980092C1A4F193C1A5F1000E6BEC0EF0A3EC80
:1014A8001BF08CC1A6F18DC1A7F10101A651A45D65
:1014B800A751A559D8B063EF0AF065EF0AF07CEFA1
:1014C8000AF0A65100019D5D0101A75100019E5936
:1014D800D8A071EF0AF073EF0AF07CEF0AF0010E62
:1014E80001014A6F040EF0EC1CF0010EA9EF0AF09E
:1014F8000101A651A711D8B484EF0AF086EF0AF0CB
:101508009AEF0AF0A651A711D8B48DEF0AF08FEF21
:101518000AF0A1EF0AF0A651A45DA751A559D8A0D9
:1015280098EF0AF09AEF0AF0A1EF0AF0010E496F5E
:10153800040EF0EC1CF079EF0AF0000E496F000E73
:101548004A6F040E2AEC1FF0000E1200050E01016E
:10155800926F0F0E916FF10EE82EFED7912FFCD7E8
:10156800922FFAD7030EF66EEC0EF76E000EF86E99
:101578000900F5CF91F10900F5CF92F1030E0101B1
:1015880091258C6F000E92218D6FD4EC1EF0010115
:10159800936F93510001A36FA46B050E0101926F25
:1015A8000F0E916FF10EE82EFED7912FFCD7922FD8
:1015B800FAD7FF0E0001A317000EA417030EF66E4C
:1015C800EC0EF76E000EF86E0900F5CF91F10900E8
:1015D800F5CF92F1040E010191258C6F000E922136
:1015E8008D6FD4EC1EF00101936F93510001A16F30
:1015F800A26B050E0101926F0F0E916FF10EE82E8E
:10160800FED7912FFCD7922FFAD70001A151A26FD4
:10161800A16B000EA117FF0EA217A151A311010182
:101628008F6F0001A251A4110101906F1200050EE5
:101638000101926F0F0E916FF10EE82EFED7912FD8
:10164800FCD7922FFAD7030EF66EEC0EF76E000E4B
:10165800F86E0900F5CF91F10900F5CF92F1010E6E
:10166800010191258C6F000E92218D6FD4EC1EF034
:101678000101936F93510001A36FA46B050E010143
:10168800926F0F0E916FF10EE82EFED7912FFCD7B7
:10169800922FFAD7FF0E0001A317000EA417030E0E
:1016A800F66EEC0EF76E000EF86E0900F5CF91F1AC
:1016B8000900F5CF92F1020E010191258C6F000E01
:1016C80092218D6FD4EC1EF00101936F93510001AC
:1016D800A16FA26B050E0101926F0F0E916FF10EB3
:1016E800E82EFED7912FFCD7922FFAD70001A151EF
:1016F800A26FA16B000EA117FF0EA217A151A31193
:1017080001018F6F0001A251A4110101906F120015
:1017180001019A519B11D8B494EF0BF096EF0BF09E
:10172800F8EF0BF09AC18CF19BC18DF10CEC1AF01B
:101738008CC19DF18DC19EF1E2EF0BF098C18CF147
:1017480099C18DF19AC18EF19BC18FF19DC190F124
:101758009EC191F14DEC03F001018C518D11D8A47B
:10176800B8EF0BF0BAEF0BF0C0EF0BF098C198F19F
:1017780099C199F1FCEF0BF0010E98258C6F000EC2
:1017880099218D6F9AC1F6FF9BC1F7FF000EF86E85
:101798000D0EF76403D00800F55005D0F6CFE9FF29
:1017A800F7CFEAFFEF5001019C6F9C518E6F8F6B52
:1017B8007CEC1BF08CC198F18DC199F10101985115
:1017C8009911D8B4EAEF0BF0ECEF0BF0F8EF0BF04F
:1017D80098C1D9FF99C1DAFFDF50D8A4F6EF0BF012
:1017E800F8EF0BF0A2EF0BF0000E986F000E996F58
:1017F8001200000E0101A86F04EF0CF00101A82BE4
:10180800A851A325A66F000EA421A76FA6C1F6FFB5
:10181800A7C1F7FF000EF86E0D0EF76403D008009D
:10182800F55005D0F6CFE9FFF7CFEAFFEF500009F2
:10183800D8A421EF0CF023EF0CF002EF0CF001011B
:10184800A8511408A86FA8C18CF18D6B000E8F6F7A
:10185800020E8E6F97EC0FF001018C29A86FA8C1BA
:1018680098F1A55144EC18F050EF0CF0A3C1F6FF25
:10187800A4C1F7FF000EF86E0D0EF76403D0080040
:10188800F55005D0F6CFE9FFF7CFEAFFEF50E7ECC8
:101898001FF00101A34BA42BA3C1F6FFA4C1F7FFBE
:1018A800000EF86E0D0EF76403D00800F55005D051
:1018B800F6CFE9FFF7CFEAFFEF500009D8A467EFAA
:1018C8000CF069EF0CF03AEF0CF0120000019751A0
:1018D8009811D8A472EF0CF074EF0CF07AEF0CF0BA
:1018E80097C010F098C011F080EF0CF0FF0E97250C
:1018F800106EFF0E9821116E9BA185EF0CF087EFFB
:101908000CF090EF0CF00CC001F0026A0AC003F072
:101918000BC004F0A2EC0DF011BE95EF0CF097EFA0
:101928000CF099EF0CF09DEF0CF0000E116E000E0C
:10193800106E000E0F6E000E0E6EAFEF0CF0000E64
:10194800026E200E016E0AC003F00BC004F0A2EC78
:101958000DF00E4A0F2A10500E5C0F50800A0D6EC3
:101968001150800A0D58D8A0BCEF0CF0BEEF0CF057
:10197800A3EF0CF000019BB1C4EF0CF0C6EF0CF024
:10198800CFEF0CF00CC001F0026A0AC003F00BC0E4
:1019980004F0A2EC0DF0010E0E240A6E000E0F20CA
:1019A8000B6E120000019BA1DCEF0CF0DEEF0CF0D7
:1019B800E8EF0CF09EC195F19FC196F19CC197F19B
:1019C8009DC198F1EBEC1BF00101A1BFEEEF0CF00B
:1019D800F0EF0CF0F6EF0CF0A0C1A5F1A1C1A6F153
:1019E800FAEF0CF0000EA66F000EA56F000EA46FA4
:1019F800000EA36F0DEF0DF0000E8D6F200E8C6F93
:101A08009CC18EF19DC18FF13CEC0DF00101A34BFF
:101A1800A42BA551A35DA451800AA26FA651800AE8
:101A2800A259D8A01AEF0DF01CEF0DF000EF0DF041
:101A380000019BB122EF0DF024EF0DF02EEF0DF019
:101A48009EC195F19FC196F19CC197F19DC198F1F6
:101A5800EBEC1BF09EC18CF19FC18DF10CEC1AF0E0
:101A68000101A5518C259C6FA6518D219D6F1200F7
:101A780001018E518F11D8B444EF0DF046EF0DF0EF
:101A88004FEF0DF08E518F11D8A44DEF0DF04FEFA1
:101A98000DF054EF0DF08C51FFECFFF0A1EF0DF0BD
:101AA80020EE09F08E51D9268F51DA22DE50DE1051
:101AB800D8B461EF0DF063EF0DF07EEF0DF020EE7E
:101AC80009F08E51D9268F51DA2210EE03F08E518B
:101AD800E1268F51E222DE50E65CE650800A946FE0
:101AE800DE50800A9459D8B07CEF0DF07EEF0DF0EF
:101AF800A1EF0DF020EE03F08E51D9268F51DA2296
:101B0800DECF90F1DDCF91F18EC1D9FF8FC1DAFF21
:101B1800DECF92F1DDCF93F190519225D96E91519C
:101B28009321DA6E8CC1DFFF20EE03F08E51D926A7
:101B38008F51DA22DE2A000EDD2212000350041033
:101B4800D8B4A9EF0DF0ABEF0DF0B4EF0DF00350E2
:101B58000410D8A4B2EF0DF0B4EF0DF0B9EF0DF00A
:101B6800015048EC20F006EF0EF020EE09F003508B
:101B7800D9260450DA22DE50DE10D8B4C6EF0DF0B4
:101B8800C8EF0DF0E3EF0DF020EE09F00350D92671
:101B98000450DA2210EE03F00350E1260450E2224A
:101BA800DE50E65CE650800A096EDE50800A09586D
:101BB800D8B0E1EF0DF0E3EF0DF006EF0EF020EEF8
:101BC80003F00350D9260450DA22DECF05F0DDCF2A
:101BD80006F003C0D9FF04C0DAFFDECF07F0DDCF7F
:101BE80008F005500724D96E06500820DA6E01C0A7
:101BF800DFFF20EE03F00350D9260450DA22DE2A54
:101C0800000EDD22120048454C4C4F000000000039
:101C180000000000000000000000000000000000BC
:101C280000000000000000000000000000000000AC
:101C3800000000000000000000000000000000009C
:101C4800000000000000000000000000000000008C
:101C5800000000000000000000000000000000007C
:101C6800000000000000000000000000000000006C
:101C7800000000000000000000000000000000005C
:101C8800000000000000000000000000000000004C
:101C9800000000000000000000000000000000003C
:101CA800000000000000000000000000000000002C
:101CB800000000000000000000000000000000001C
:101CC800000000000000000000000000000001010A
:101CD8008E6F9CEF0EF0180E0F015F6FCEEF0EF0B7
:101CE8000F0E0F015F6FCEEF0EF00E0E0F015F6F3C
:101CF800CEEF0EF0190E0F015F6FCEEF0EF0090E4A
:101D08000F015F6FCEEF0EF00A0E0F015F6FCEEF7F
:101D18000EF0310E0F015F6FCEEF0EF0320E0F0195
:101D28005F6FCEEF0EF0050E0F015F6FCEEF0EF076
:101D380001018E518C6F8D6B8D51000AD8B4A7EFBD
:101D48000EF0CEEF0EF08C51000AD8B46FEF0EF003
:101D5800010AD8B474EF0EF0030AD8B479EF0EF084
:101D6800010AD8B47EEF0EF0070AD8B483EF0EF05C
:101D7800010AD8B488EF0EF0030AD8B48DEF0EF03C
:101D8800010AD8B492EF0EF00F0AD8B497EF0EF00C
:101D9800CEEF0EF01200050E0101946F0F0E936F37
:101DA800F10EE82EFED7932FFCD7942FFAD7240EE6
:101DB80001018F258C6F000E90218D6F20EE24F08D
:101DC8009151D9269251DA22DF508E6F44EC1DF0E2
:101DD800050E0101946F0F0E936FF10EE82EFED7DA
:101DE800932FFCD7942FFAD7260E01018F258C6FDD
:101DF800000E90218D6F20EE26F09151D926925138
:101E0800DA22DF508E6F44EC1DF0050E0101946F4D
:101E18000F0E936FF10EE82EFED7932FFCD7942F59
:101E2800FAD72C0E01018F258C6F000E90218D6F33
:101E380020EE2CF09151D9269251DA22DF508E6F84
:101E480044EC1DF0050E0101946F0F0E936FF10E17
:101E5800E82EFED7932FFCD7942FFAD71200050E41
:101E68000101946F0F0E936FF10EE82EFED7932F9A
:101E7800FCD7942FFAD7210E01018F258C6F000E05
:101E880090218D6F20EE21F09151D9269251DA22BE
:101E9800DF508E6F44EC1DF0050E0101946F0F0E9C
:101EA800936FF10EE82EFED7932FFCD7942FFAD715
:101EB800220E01018F258C6F000E90218D6F20EE70
:101EC80022F09151D9269251DA22DF508E6F44ECDC
:101ED8001DF0050E0101946F0F0E936FF10EE82EA1
:101EE800FED7932FFCD7942FFAD7230E01018F2505
:101EF8008C6F000E90218D6F20EE23F09151D92622
:101F08009251DA22DF508E6F44EC1DF0050E01016C
:101F1800946F0F0E936FF10EE82EFED7932FFCD718
:101F2800942FFAD71200000E0101916F8FBFA1EF15
:101F38000FF09FEF0FF0A7EF0FF08E6D8F1FD8B047
:101F48008F2B010E916F8DBFAEEF0FF0ACEF0FF03E
:101F5800B4EF0FF08C6D8D1FD8B08D2B010E911B37
:101F6800000E936F000E926F8E518F11D8B4BFEF91
:101F78000FF0C1EF0FF0E9EF0FF0010E906FC9EF0E
:101F88000FF0D8908E378F37902B8FAFCEEF0FF0A2
:101F9800D0EF0FF0C5EF0FF0D890923793378E51EE
:101FA8008C5D8F518D59D8A0DCEF0FF0DEEF0FF06C
:101FB800E3EF0FF08E518C5F8F518D5B9281D8903B
:101FC8008F338E33902FD0EF0FF09151D8B4EFEFBD
:101FD8000FF0F1EF0FF0F5EF0FF0926D931FD8B0FF
:101FE800932B92C18CF193C18DF1120000019BA13A
:101FF80000EF10F002EF10F00CEF10F013C00AF031
:1020080014C00BF011C00CF012C00DF00FEC1CF056
:1020180016BE11EF10F013EF10F019EF10F015C005
:102028001AF016C01BF01DEF10F0000E1B6E000E0C
:102038001A6E000E196E000E186E2FEF10F0000EBB
:10204800026E200E016E11C003F012C004F0A2EC63
:102058000DF0184A192A1A50185C1950800A176E80
:102068001B50800A1758D8A03CEF10F03EEF10F034
:1020780023EF10F000019BB144EF10F046EF10F091
:1020880050EF10F013C00AF014C00BF011C00CF0A0
:1020980012C00DF00FEC1CF013C001F014C002F0D8
:1020A8002CEC1BF01A500124116E1B500220126EEA
:1020B80012000E0EF66E1C0EF76E000EF86E04EE91
:1020C80000F010EEC8F00900F5CFEEFFE550E15042
:1020D800FAE17E0EF66E270EF76E000EF86E02EE2F
:1020E80000F010EE99F00900F5CFEEFFE550E15051
:1020F800FAE18A0EF66E400EF76E000EF86E01EEEB
:10210800FBF010EE05F00900F5CFEEFFE550E150C9
:10211800FAE105EE60F012EED0F0EE6AE550E1501B
:10212800FCE1E250FAE105EE00F0600EEE6AE80626
:10213800FDE103EE00F0C80EEE6AE806FDE102EEEE
:1021480099F0630EEE6AE806FDE101EE00F08C0EF0
:10215800EE6AE806FDE100EE97F0350EEE6AE80655
:10216800FDE15F905F92000169EFF6F0290E010131
:10217800906F960E8F6F7F0EE82EFED78F2FFCD7AD
:10218800902FFAD7ACEC1FF0D00E39EC1FF0000EF0
:1021980039EC1FF0B6EC1FF0D10E39EC1FF0010E30
:1021A800DAEC1AF00101556F010EDAEC1AF00001B1
:1021B800B96F010EDAEC1AF00001BA6F010EDAEC11
:1021C8001AF0010EDAEC1AF00001BB6F010EDAEC1E
:1021D8001AF00001BC6F000EDAEC1AF00001BD6FB6
:1021E800A2EC1FF0010155511AEC1FF00101556FC7
:1021F8000001B9511AEC1FF00001B96FBA511AEC7D
:102208001FF00001BA6FBB511AEC1FF00001BB6F41
:10221800BC511AEC1FF00001BC6FBD511AEC1FF045
:102228000001BD6F120006EC19F0050E0301E16F05
:102238000F0EE06FF10EE82EFED7E02FFCD7E12F4E
:10224800FAD70001AD51D8A42CEF11F02EEF11F000
:102258006FEF11F0010E01012D6F010E0001AD6F3E
:10226800020E0AEC1FF0030E0AEC1FF0040E0AEC33
:102278001FF0720E0101A36FFF0EA46F010EA56F70
:10228800FDEC0BF0CA0E0101A36FFA0EA46F020E4B
:10229800A56FFDEC0BF0C9EC11F0010E0AEC1FF074
:1022A800810E0101A36F010EA46F010EA56FFDEC55
:1022B8000BF0F40E0301E16F820EE06F050EE82EBD
:1022C800FED7E02FFCD7E12FFAD7B5ECFFF076EC7C
:1022D80018F056EC14F01200000E0101A36F9FBF16
:1022E8007AEF11F078EF11F080EF11F09E6D9F1FDB
:1022F800D8B09F2B010EA36FA1BF87EF11F085EF18
:1023080011F08BEF11F0A06DA11FD8B0A12BA05137
:10231800A111D8B492EF11F094EF11F0B8EF11F0C9
:10232800010EA26F9CEF11F0D890A037A137A22B15
:10233800A1AFA1EF11F0A3EF11F098EF11F0A051A8
:102348009E5DA1519F59D8A0ACEF11F0AEEF11F0EE
:10235800B2EF11F0A0519E5FA1519F5BD890A133BD
:10236800A033A22FA3EF11F0A351D8B4BEEF11F000
:10237800C0EF11F0C4EF11F09E6D9F1FD8B09F2BD6
:102388009EC19EF19FC19FF11200D1ECD9F00001CE
:10239800BA51BBC0FEF20201FF6BFE27000EFF23FD
:1023A8000001B9510201FE27000EFF23010155511A
:1023B8000201FE2501018C6F000E0201FF210101BF
:1023C8008D6F98EC1EF022EE2DF013EED5F00A0E6C
:1023D800DBCFE3FFE806FCE2000E0001C36F050E49
:1023E800C365F9EF11F0FBEF11F0FDEF11F01DEFF0
:1023F80012F06DEC16F098C19EF199C19FF1000E94
:102408000101A16F0A0EA06F70EC11F0D50E010149
:102418009E25D96E030E9F21DA6E810E0001C32519
:10242800E16EE26A010EE222DFCFE7FFC32BF3EF92
:1024380011F0000E0101876F1200050E0101906F67
:102448000F0E8F6FF10EE82EFED78F2FFCD7902F2F
:10245800FAD7030EF66EEC0EF76E000EF86E090052
:10246800F5CF8FF10900F5CF90F1010E01018F250D
:102478008C6F000E90218D6FA5C08EF144EC1DF07D
:10248800050E0101906F0F0E8F6FF10EE82EFED72B
:102498008F2FFCD7902FFAD7030EF66EEC0EF76E3F
:1024A800000EF86E0900F5CF8FF10900F5CF90F115
:1024B800020E01018F258C6F000E90218D6F000197
:1024C800A65101018E6F44EC1DF0050E0101906FBD
:1024D8000F0E8F6FF10EE82EFED78F2FFCD7902F9F
:1024E800FAD71200050E0101906F0F0E8F6FF10ED3
:1024F800E82EFED78F2FFCD7902FFAD7030EF66E53
:10250800EC0EF76E000EF86E0900F5CF8FF109009A
:10251800F5CF90F1030E01018F258C6F000E9021ED
:102528008D6F24C18EF144EC1DF0050E0101906FF2
:102538000F0E8F6FF10EE82EFED78F2FFCD7902F3E
:10254800FAD7030EF66EEC0EF76E000EF86E090061
:10255800F5CF8FF10900F5CF90F1040E01018F2519
:102568008C6F000E90218D6F25518E6F44EC1DF0FD
:10257800050E0101906F0F0E8F6FF10EE82EFED73A
:102588008F2FFCD7902FFAD71200000E0101A76FEA
:10259800000EA66F010E426F030E6BEC0EF08F80DB
:1025A800050E0101A56F0F0EA46FF10EE82EFED7E0
:1025B800A42FFCD7A52FFAD7A3EC1BF08CC1A8F148
:1025C8008DC1A9F18F900101A851A911D8A4EFEFED
:1025D80012F0F1EF12F016EF13F0010E0001AF6FD9
:1025E800060EF0EC1CF0090E0101A56F1E0EA46F7B
:1025F800E40EE82EFED7A42FFCD7A52FFAD700F0BB
:10260800A6EC18F0090E0101A56F1E0EA46FE40ECA
:10261800E82EFED7A42FFCD7A52FFAD700F0010E7D
:102628001AEF13F0060E2AEC1FF0000E1200290E06
:102638000101A76F960EA66F7F0EE82EFED7A62F74
:10264800FCD7A72FFAD701015551B2EC1CF00101B4
:10265800556F0001B951B2EC1CF00001B96FBA51C5
:10266800B2EC1CF00001BA6FBB51B2EC1CF00001D7
:10267800BB6FBC51B2EC1CF00001BC6FBD51B2EC99
:102688001CF00001BD6FACEC1FF0D00E39EC1FF050
:10269800000E39EC1FF00101555139EC1FF0000113
:1026A800B95139EC1FF00001BA5139EC1FF0010E95
:1026B80039EC1FF00001BB5139EC1FF00001BC518F
:1026C80039EC1FF00001BD5139EC1FF0A2EC1FF0EE
:1026D80012000101AD6F000E01015D6F020EAC6FBB
:1026E800000E4E6FADC1A4F1AC5183ECEEF0010EBB
:1026F80001015D6582EF13F084EF13F076EF13F0BC
:102708003C51D8A48AEF13F08CEF13F094EF13F038
:102718004E51D8B492EF13F094EF13F09CEF13F0EE
:10272800000E0001A06F000E9F6F010E01014E6F99
:10273800AD512D0D620EF324D96E050EF420DA6E1C
:102748009FC092F1A0C093F1000E956F640E946F34
:10275800F7EC15F0DE500101925DDE509359D8A0D8
:10276800B8EF13F0BAEF13F0BDEF13F0010EBEEFA0
:1027780013F0000E120091028102690279026102CF
:102788005902510271028902F402001F1C1F1E1F08
:102798001E1F1F1E1F1E1F1F001F1E1F1E1F1F1E66
:1027A8001F1E1F30313233343536373839000001B7
:1027B80003161C080000004014546130643164386A
:1027C800363638646438001F1115151115111F02AB
:1027D800040818060408100000040A151F00000465
:1027E800071C071C071C0400001F111B151F0004F1
:1027F8000E1F1F1F0E0404150E150E0404040004FA
:0F2808000E0E0E1F000400000E1517110E00001B
:10281800000E0001C36F5F0EC36515EF14F017EFCC
:1028280014F019EF14F049EF14F0050E0101906F40
:102838000F0E8F6FF10EE82EFED78F2FFCD7902F3B
:10284800FAD7070EF66EEC0EF76E000EF86E09005A
:10285800F5CF8FF10900F5CF90F10001C3510101C7
:102868008F258C6F000E90218D6F000E0001C325FF
:10287800D96EDA6A050EDA22DF5001018E6F44EC58
:102888001DF00001C32B0FEF14F0050E0101906F2E
:102898000F0E8F6FF10EE82EFED78F2FFCD7902FDB
:1028A800FAD71200000E0001C36F0B0EC3655FEF6D
:1028B80014F061EF14F063EF14F093EF14F0050EC9
:1028C8000101906F0F0E8F6FF10EE82EFED78F2F3C
:1028D800FCD7902FFAD70B0EF66EEC0EF76E000EA3
:1028E800F86E0900F5CF8FF10900F5CF90F10001DE
:1028F800C35101018F258C6F000E90218D6F440EFE
:102908000001C325D96EDA6A020EDA22DF5001010E
:102918008E6F44EC1DF00001C32B59EF14F0050E27
:102928000101906F0F0E8F6FF10EE82EFED78F2FDB
:10293800FCD7902FFAD71200D59E090E01019F6F80
:102948001E0E9E6FE40EE82EFED79E2FFCD79F2FFB
:10295800FAD700F08A96050E01019F6F0F0E9E6F41
:10296800F10EE82EFED79E2FFCD79F2FFAD78A9814
:10297800050E01019F6F0F0E9E6FF10EE82EFED718
:102988009E2FFCD79F2FFAD78A9A050E01019F6FB9
:102998000F0E9E6FF10EE82EFED79E2FFCD79F2FAD
:1029A800FAD79090050E01019F6F0F0E9E6FF10EE2
:1029B800E82EFED79E2FFCD79F2FFAD7010E2AECC0
:1029C8001FF0020E2AEC1FF0120001018F6FE40EB7
:1029D80000D000D0E82EFCD700D000D03EEC1EF08E
:1029E800E40E00D000D0E82EFCD700D000D0F9ECDF
:1029F8001FF0E40E00D000D0E82EFCD700D000D0A5
:102A080001018F51FE0B48EC1FF0E40E00D000D0FE
:102A1800E82EFCD700D000D03EEC1EF0E40E00D02B
:102A280000D0E82EFCD700D000D001018E5148EC30
:102A38001FF0E40E00D000D0E82EFCD700D000D064
:102A4800F0EC1FF0E40E00D000D0E82EFCD700D048
:102A580000D01200090E0101A56F1E0EA46FE40E2E
:102A6800E82EFED7A42FFCD7A52FFAD700F0908028
:102A7800010EF0EC1CF0000E0001BF6FD58EAE51B8
:102A8800D8B449EF15F04BEF15F052EF15F0010EE1
:102A9800BE6F020EF0EC1CF054EF15F0630EBE6F23
:102AA800000E0001B36F290E0101A56F960EA46FE9
:102AB8007F0EE82EFED7A42FFCD7A52FFAD7908239
:102AC8004A0E0101A56F0E0EA46F190EE82EFED74F
:102AD800A42FFCD7A52FFAD7909212008CC192F19F
:102AE8008DC193F193EF15F09007D8A091078EC18F
:102AF800D9FF8FC1DAFF8E4B8F2B92C1E1FF93C1B3
:102B0800E2FF924B932BDFCFE7FFE750D8A48FEF7C
:102B180015F091EF15F093EF15F0A7EF15F00101FF
:102B280090519111D8A49BEF15F09DEF15F078EF17
:102B380015F0A7EF15F092C1D9FF93C1DAFF000E87
:102B4800DF6E924B932B9007D8A09107902906E14E
:102B58009129D8A4B2EF15F0B4EF15F09FEF15F056
:102B68001200046EE40E00D000D0E82EFCD700D08E
:102B780000D06DEC1EF0E40E00D000D0E82EFCD79B
:102B880000D000D014EC20F0E40E00D000D0E82EE5
:102B9800FCD700D000D00450FE0B7DEC1FF0E40EF3
:102BA80000D000D0E82EFCD700D000D06DEC1EF08D
:102BB800E40E00D000D0E82EFCD700D000D003509F
:102BC8007DEC1FF0E40E00D000D0E82EFCD700D03A
:102BD80000D00BEC20F0E40E00D000D0E82EFCD79B
:102BE80000D000D01200000E0101986F000E976F00
:102BF80094519511D8B403EF16F005EF16F02DEFA8
:102C080016F0010E966F0DEF16F0D89094379537A1
:102C1800962B95AF12EF16F014EF16F009EF16F099
:102C2800D890973798379451925D95519359D8A079
:102C380020EF16F022EF16F027EF16F09451925F6E
:102C48009551935B9781D89095339433962F14EFD1
:102C580016F097C192F198C193F1120053EF16F054
:102C68008DC1F6FF8EC1F7FF000EF86E0D0EF764EA
:102C780003D00800F55005D0F6CFE9FFF7CFEAFFFB
:102C8800EF5063EC1FF001018D4B8E2BD00E01012C
:102C98008F6FC90EE82EFED78F2FFCD700D08DC1BD
:102CA800F6FF8EC1F7FF000EF86E0D0EF76403D025
:102CB8000800F55005D0F6CFE9FFF7CFEAFFEF504F
:102CC8000009D8A46AEF16F06CEF16F034EF16F08E
:102CD800120088C18CF189C18DF18AC18EF18BC136
:102CE8008FF12D0E0101906F7F0E916F950E926FEF
:102CF8004C0E936FDCEC16F0010E01018C25886FE9
:102D0800000E8D21896F000E8E218A6F000E8F2193
:102D18008B6F88C19AF189C19BF18AC19CF18BC1E3
:102D28009DF1120E9DEF16F0D8909D339C339B3386
:102D38009A33E82E98EF16F09AC198F19BC199F151
:102D4800120001018D6F000E01018D25D96EDA6A1E
:102D5800030EDA22300EDE18D8A4B5EF16F0B7EF5E
:102D680016F0C1EF16F0010E8D25D96EDA6A030E42
:102D7800DA22DF50CF0FDBEF16F0000E8D25D96E6B
:102D8800DA6A030EDA22310EDE18D8A4CEEF16F076
:102D9800D0EF16F0DAEF16F0010E8D25D96EDA6A4B
:102DA800030EDA22DF50D90FDBEF16F0FF0E120008
:102DB800000E0101946F000E956F000E966F000EC5
:102DC800976F8CA1EAEF16F0ECEF16F0F4EF16F01F
:102DD800905194279151952392519623935197237B
:102DE800D8909037913792379337D8908F338E3366
:102DF8008D338C338C518D118E118F11D8A407EF20
:102E080017F009EF17F0E5EF16F094C18CF195C1B2
:102E18008DF196C18EF197C18FF11200026E000EEE
:102E28000224D96EDA6A030EDA22300EDE18D8A42C
:102E380020EF17F022EF17F02CEF17F0010E022405
:102E4800D96EDA6A030EDA22DF50CF0F46EF17F099
:102E5800000E0224D96EDA6A030EDA22310EDE1869
:102E6800D8A439EF17F03BEF17F045EF17F0010E34
:102E78000224D96EDA6A030EDA22DF50D90F46EF40
:102E880017F0FF0E1200DEC1E2F1DFC1E3F1000E20
:102E98000101016F000E006F65EF17F0DCC1CBF187
:102EA800DDC1CCF1E20ECD6F010ECE6FE0C1CFF1E6
:102EB800E1C1D0F1ACECF7F00101CB510027CC51C6
:102EC8000123E2C1F6FFE3C1F7FF000EF86E080028
:102ED800F5500009D8A473EF17F075EF17F052EF0B
:102EE80017F000C1DCF101C1DDF1120001018E51C2
:102EF8008F11D8B482EF17F084EF17F0A8EF17F00E
:102F0800010E906F8CEF17F0D8908E378F37902B7B
:102F18008FAF91EF17F093EF17F088EF17F08E51FE
:102F28008C5D8F518D59D8A09CEF17F09EEF17F04C
:102F3800A2EF17F08E518C5F8F518D5BD8908F3335
:102F48008E33902F93EF17F08CC18CF18DC18DF1DA
:102F5800120053C057F054C058F0000E0101016F21
:102F6800000E006FCBEF17F051C040F052C041F097
:102F7800570E426E000E436E55C044F056C045F0E1
:102F8800D1ECF8F04050010100274150012357C00F
:102F9800F6FF58C0F7FF000EF86E0800F55000095C
:102FA800D8A4D9EF17F0DBEF17F0B8EF17F000C18E
:102FB80051F001C152F012000101916F050E01019B
:102FC800906F0F0E8F6FF10EE82EFED78F2FFCD764
:102FD800902FFAD7030EF66EEC0EF76E000EF86E11
:102FE8000900F5CF8FF10900F5CF90F1050E010129
:102FF8008F258C6F000E90218D6F91C18EF144EC5E
:103008001DF0050E0101906F0F0E8F6FF10EE82E67
:10301800FED78F2FFCD7902FFAD71200050E01018B
:10302800906F0F0E8F6FF10EE82EFED78F2FFCD703
:10303800902FFAD7030EF66EEC0EF76E000EF86EB0
:103048000900F5CF8FF10900F5CF90F1050E0101C8
:103058008F258C6F000E90218D6FD4EC1EF001012E
:10306800916F050E0101906F0F0E8F6FF10EE82E14
:10307800FED78F2FFCD7902FFAD70101915112005C
:103088000101A26F40C29EF141C29FF142C2A0F16C
:1030980043C2A1F10101A2510001AA5DD8B057EFC6
:1030A80018F059EF18F05CEF18F0AA050101A26FAB
:1030B800FF0E0101996FFF0E9A6FA2519B6F9C6BD7
:1030C80099519B279A519C239E0E9B25D96E010EE0
:1030D8009C21DA6EDF5098259D6F9D058009DEECF6
:1030E8001FF01200050E0101906F0F0E8F6FF10E89
:1030F800E82EFED78F2FFCD7902FFAD7030EF66E47
:10310800EC0EF76E000EF86E0900F5CF8FF109008E
:10311800F5CF90F1080E01018F258C6F000E9021DC
:103128008D6FADC08EF144EC1DF0050E0101906F5E
:103138000F0E8F6FF10EE82EFED78F2FFCD7902F32
:10314800FAD71200050E0101906F0F0E8F6FF10E66
:10315800E82EFED78F2FFCD7902FFAD7030EF66EE6
:10316800EC0EF76E000EF86E0900F5CF8FF109002E
:10317800F5CF90F1060E01018F258C6F000E90217E
:103188008D6FAFC08EF144EC1DF0050E0101906FFC
:103198000F0E8F6FF10EE82EFED78F2FFCD7902FD2
:1031A800FAD71200050E0101906F0F0E8F6FF10E06
:1031B800E82EFED78F2FFCD7902FFAD7030EF66E86
:1031C800EC0EF76E000EF86E0900F5CF8FF10900CE
:1031D800F5CF90F10D0E01018F258C6F000E902117
:1031E8008D6FB2C08EF144EC1DF0050E0101906F99
:1031F8000F0E8F6FF10EE82EFED78F2FFCD7902F72
:10320800FAD71200030EF66EEC0EF76E000EF86E8B
:103218000900F5CF8FF10900F5CF90F1080E0101F3
:103228008F258C6F000E90218D6FD4EC1EF0000955
:10323800D8A421EF19F024EF19F0010E25EF19F0A9
:10324800000E0001AD6F050E0101906F0F0E8F6F1C
:10325800F10EE82EFED78F2FFCD7902FFAD7120049
:10326800176E40C213F041C214F042C215F043C2B7
:1032780016F017500001AA5DD8B045EF19F047EFD6
:1032880019F049EF19F0AA05176EFF0E0E6EFF0E22
:103298000F6E1750106E116A0E5010260F50112223
:1032A800130E1024D96E000E1120DA6EDF500D2493
:1032B800126E1204800939EC20F0120001019A6F95
:1032C800070E01019A179A39E842F80BF80B4009E2
:1032D800DEEC1FF0000E01019C6F000E9B6F9B51EE
:1032E8009825D96E9C519921DA6EDF50E7EC1FF0D2
:1032F80001019B4B9C2B9CBF8BEF19F09C5109E162
:10330800080E9B5DD8A08BEF19F08DEF19F073EFC5
:1033180019F01200050E0101946F0F0E936FF10E54
:10332800E82EFED7932FFCD7942FFAD72A0E010147
:103338008F258C6F000E90218D6F20EE2AF0915111
:10334800D9269251DA22DF508E6F44EC1DF0050E1B
:103358000101946F0F0E936FF10EE82EFED7932F95
:10336800FCD7942FFAD71200050E0101946F0F0EA7
:10337800936FF10EE82EFED7932FFCD7942FFAD730
:10338800290E01018F258C6F000E90218D6F20EE84
:1033980029F09151D9269251DA22DF508E6F44ECF0
:1033A8001DF0050E0101946F0F0E936FF10EE82EBC
:1033B800FED7932FFCD7942FFAD71200050E0101E0
:1033C800946F0F0E936FF10EE82EFED7932FFCD754
:1033D800942FFAD7280E01018F258C6F000E9021AB
:1033E8008D6F20EE28F09151D9269251DA22DF50C4
:1033F8008E6F44EC1DF0050E0101946F0F0E936F54
:10340800F10EE82EFED7932FFCD7942FFAD712008F
:103418008CC18EF18DC18FF115EF1AF001018C4B23
:103428008D2B8CC1F6FF8DC1F7FF000EF86E0D0EC7
:10343800F76403D00800F55005D0F6CFE9FFF7CFC1
:10344800EAFFEF500009D8A42CEF1AF02EEF1AF07B
:1034580012EF1AF001018E518C5D8C6F8F518D59CE
:103468008D6F1200050E0101906F0F0E8F6FF10E18
:10347800E82EFED78F2FFCD7902FFAD7030EF66EC3
:10348800EC0EF76E000EF86E0900F5CF8CF10A000D
:10349800F5CF8DF1B1C08EF144EC1DF0050E0101A0
:1034A800906F0F0E8F6FF10EE82EFED78F2FFCD77F
:1034B800902FFAD7120077EF1AF08DC1F6FF8EC160
:1034C800F7FF000EF86E0800F55056EC1FF00101EA
:1034D8008D4B8E2BD00E01018F6FC90EE82EFED7B3
:1034E8008F2FFCD700D08DC1F6FF8EC1F7FF000EDD
:1034F800F86E0800F5500009D8A485EF1AF087EF98
:103508001AF061EF1AF01200000E0101936FA1EF9B
:103518001AF08DC1D9FF8EC1DAFFDF5063EC1FF0BE
:1035280001018D4B8E2B932BD00E0101916FC90E8B
:10353800E82EFED7912FFCD700D001019351916F4F
:10354800926B8F51915D90519259D8A0AEEF1AF0BD
:10355800B0EF1AF08DEF1AF01200E80E0101EC6FCF
:10356800010EED6FE4C1EEF1E5C1EFF1000EF26F6F
:10357800000EF16F000EF86F000EF76FEE0EDC6FA5
:10358800010EDD6FE6C1DEF1E7C1DFF1EC0EE06FA1
:10359800010EE16F47EC17F00101F151E425D96EF6
:1035A800F251E521DA6E000EDF6E120001018D6F17
:1035B8000E01DA87D8A1E3EF1AF0E5EF1AF0DEEF93
:1035C8001AF0D5CE8EF129EC1DF001018D51D8B439
:1035D800F0EF1AF0F2EF1AF0F6EF1AF00E01DA9B9C
:1035E800F8EF1AF00E01DA8BDA89DAB9FEEF1AF081
:1035F80000EF1BF0F9EF1AF001018E5112005D0E79
:103608000001606F000E616F59C062F05AC063F02C
:10361800000E666F000E656F000E6C6F000E6B6F0C
:10362800620E516E000E526E5BC053F05CC054F0D7
:10363800600E556E000E566EADEC17F00001655128
:103648005924D96E66515A20DA6E000EDF6E1200C8
:1036580001C003F002C004F034EF1BF0014A022A53
:1036680001C0F6FF02C0F7FF000EF86E0D0EF764FA
:1036780003D00800F55005D0F6CFE9FFF7CFEAFFF1
:10368800EF500009D8A44BEF1BF04DEF1BF032EFC1
:103698001BF00350015C016E04500258026E1200C8
:1036A8000F6E070E0F160F38E842F80BF80B40099B
:1036B80039EC20F0000E116E000E106E10500D2423
:1036C800D96E11500E20DA6EDF5032EC20F0104A1D
:1036D800112A11BE79EF1BF0115009E1080E105C98
:1036E800D8A079EF1BF07BEF1BF062EF1BF0120004
:1036F8008CC1D9FF8DC1DAFF01018E51DE18D8A423
:1037080088EF1BF08AEF1BF090EF1BF08CC18CF157
:103718008DC18DF1A2EF1BF08CC1D9FF8DC1DAFFED
:103728008C4B8D2BDF50D8A49CEF1BF09EEF1BF029
:103738007CEF1BF0000E8C6F000E8D6F1200050ED3
:1037480001018F6F0F0E8E6FF10EE82EFED78E2FB0
:10375800FCD78F2FFAD7608060B0B5EF1BF0B7EFBA
:103768001BF0B0EF1BF063CF90F10101916B645037
:103778008F6F8E6B8E5190138F51911390C18CF176
:1037880091C18DF11200000E0101916FE0EF1BF065
:103798008DC1D9FF8EC1DAFFDF5056EC1FF0010151
:1037A8008D4B8E2B912BD00E0101906FC90EE82EF8
:1037B800FED7902FFCD700D001018F51915DD8A082
:1037C800E8EF1BF0EAEF1BF0CCEF1BF01200000E45
:1037D80001019B6F000E9A6FFEEF1BF099C18CF1EF
:1037E8008D6B97C18EF198C18FF13CEC0DF0010102
:1037F8009A4B9B2B9A519525D96E9B519621DA6E3F
:10380800DF50996F9951D8A40CEF1CF00EEF1CF003
:10381800F2EF1BF01200000E106E000E0F6E20EF7C
:103828001CF00EC001F0026A0CC003F00DC004F0D9
:10383800A2EC0DF00F4A102A0F500A24D96E10502E
:103848000B20DA6EDF500E6E0E50D8A42EEF1CF04F
:1038580030EF1CF015EF1CF0120001019FBF3FEF85
:103868001CF09F5106E19E05D8B03DEF1CF03FEFDC
:103878001CF04DEF1CF09EC1A0F19FC1A1F1A01F4B
:10388800A11FA04BA12BA0C19EF1A1C19FF151EF97
:103898001CF09EC19EF19FC19FF1120061EF1CF0C8
:1038A80098C1F6FF99C1F7FF000EF86E0800F550B1
:1038B800E7EC1FF00101984B992B98C1F6FF99C1CD
:1038C800F7FF000EF86E0800F5500009D8A46FEF56
:1038D8001CF071EF1CF054EF1CF01200000E0001F8
:1038E800C36FC70EC3657BEF1CF07DEF1CF07FEF45
:1038F8001CF08AEF1CF0000EC325D96EDA6A040E9C
:10390800DA22000EDF6EC32B75EF1CF0000EC46FB9
:10391800000E01012B6F010E516F120014BE9FEFB4
:103928001CF0145006E11304D8B09DEF1CF09FEF73
:103938001CF0ADEF1CF013C015F014C016F0151EE6
:10394800161E154A162A15C013F016C014F0B1EF4A
:103958001CF013C013F014C014F012000101A46F7E
:10396800A4C18CF101018D6B000E8F6F0A0E8E6F52
:1039780097EC0FF001018C39F00BA56FA4C19EF1F3
:103988009F6B000EA16F0A0EA06F70EC11F0010181
:103998009E51A511A56FA5511200000E01019E6F41
:1039A800E1EF1CF098C1D9FF99C1DAFFDF50E7ECCD
:1039B8001FF00101984B992B9E2B9E519C6F9D6B7C
:1039C8009A519C5D9B519D59D8A0EDEF1CF0EFEFEB
:1039D8001CF0D6EF1CF012000101A36F0101A351E6
:1039E800020D000EF324D96E020EF420DA6EDECF3B
:1039F80098F1DDCF99F1A35162EC19F00101A329E7
:103A0800986F010E44EC18F00101A3512BEC20F043
:103A180012008AB012EF1DF014EF1DF01DEF1DF01B
:103A2800000E0101436F050E2AEC1FF0000E28EF6F
:103A38001DF0000E0101436F050EF0EC1CF0000EA6
:103A48000101416F1AEF1DF012000E01D8B52FEFDA
:103A58001DF034EF1DF001018C6B8C2B36EF1DF03F
:103A680001018C6B0E01DA511F0B01018C11000949
:103A7800D8A441EF1DF043EF1DF029EF1DF012000F
:103A88008CC174FF01018D51756E8EC176FF3F0E9A
:103A980077167784F29E550E786EAA0E786E778226
:103AA80077B259EF1DF05BEF1DF054EF1DF0F28E69
:103AB80077941200000E0001C36FC70EC36567EF4D
:103AC8001DF069EF1DF06BEF1DF076EF1DF0000E95
:103AD800C325D96EDA6A030EDA22000EDF6EC32B15
:103AE80061EF1DF01200000E0001C36FC70EC36521
:103AF80080EF1DF082EF1DF084EF1DF08FEF1DF0B9
:103B0800000EC325D96EDA6A030EDA22000EDF6EC4
:103B1800C32B7AEF1DF01200000E0001C36F190EBF
:103B2800C36599EF1DF09BEF1DF09DEF1DF0A8EF09
:103B38001DF0670EC325D96EDA6A010EDA22000E6F
:103B4800DF6EC32B93EF1DF01200000E0001C36F50
:103B5800020EC365B2EF1DF0B4EF1DF0B6EF1DF015
:103B6800C1EF1DF0C70EC325D96EDA6A000EDA223E
:103B7800000EDF6EC32BACEF1DF01200000E00012B
:103B8800C36FC70EC365CBEF1DF0CDEF1DF0CFEFB0
:103B98001DF0DAEF1DF0000EC325D96EDA6A030EA8
:103BA800DA22000EDF6EC32BC5EF1DF01200186E6F
:103BB8001850020D000EF324D96E020EF420DA6EAE
:103BC800DECF0DF0DDCF0EF0185054EC1BF01828A6
:103BD8000D6E010E34EC19F0185040EC20F0120074
:103BE800000E0001C36F020EC365FDEF1DF0FFEF6D
:103BF8001DF001EF1EF00CEF1EF0C70EC325D96EA5
:103C0800DA6A000EDA22000EDF6EC32BF7EF1DF022
:103C18001200000E0001C36FC70EC36516EF1EF039
:103C280018EF1EF01AEF1EF025EF1EF0000EC32548
:103C3800D96EDA6A030EDA22000EDF6EC32B10EF9C
:103C48001EF0120001018C6F2F0E01018C652FEF01
:103C58001EF031EF1EF03CEF1EF03A0E8C6137EF8C
:103C68001EF039EF1EF03CEF1EF0010E3DEF1EF086
:103C7800000E120094B443EF1EF048EF1EF001014D
:103C88008C6B8C2B4AEF1EF001018C6B96501F0B2E
:103C98008C110009D8A453EF1EF055EF1EF03EEF2B
:103CA8001EF012000101966F01019651F00B946FFE
:103CB8009639F00B956FF00E9517945193110409EE
:103CC80070EC1FF0010195519311040970EC1FF07D
:103CD800120094B472EF1EF076EF1EF0016A012A0A
:103CE80077EF1EF0016A96501F0B01100009D8A447
:103CF80080EF1EF082EF1EF06DEF1EF01200010142
:103D0800916F0101915104098AEC1FF0050EE82E0C
:103D1800FED700F001019151FB0B8AEC1FF0A00EB9
:103D280000D0E82EFDD71200FF0E01018E6FFF0EA6
:103D38008F6F8CC190F18DC191F18E5190278F5169
:103D4800912390C188F191C189F18A6B8B6B120024
:103D580001018C518E03F3CF90F1F4CF91F18C5186
:103D68008F03F35091278D518E03F350912790C103
:103D78008CF191C18DF112000B6E0B50F00B096E96
:103D88000B38F00B0A6EF00E0A16095008100409D9
:103D9800C0EC1FF00A5008100409C0EC1FF0120014
:103DA8008CC174FF01018D51756E3F0E77167780B7
:103DB800680E01018E6FE40EE82EFED78E2FFCD719
:103DC80000F076501200066E0650040902EC20F04E
:103DD800050EE82EFED700F00650FB0B02EC20F093
:103DE800A00E00D0E82EFDD71200010EDEEC1FF069
:103DF800030E0101996F700E986F5C0EE82EFED7C6
:103E0800982FFCD7992FFAD700F012000101A36F61
:103E1800010E0101986FA35144EC18F0C20E010184
:103E2800986FF30E996F52EC1CF0120001018E6F1F
:103E38008EC18CF10F0E01018C178E390F0B0F0BF1
:103E48000A0DF3508C258D6F8D51120001019D6F65
:103E580012C298F113C299F101019D5162EC19F057
:103E680001019D512BEC20F0120001018D6F8DC1D5
:103E7800D5FE0E01D8B143EF1FF045EF1FF03DEF1F
:103E88001FF029EC1DF0120001018D6F8DC191FF0B
:103E980094B051EF1FF053EF1FF04CEF1FF03EECC2
:103EA8001EF0120001018C6F8CC199FF0E0136A91A
:103EB80060EF1FF062EF1FF05AEF1FF012000101D0
:103EC8008C6F8CC1EBFE0E0137A16DEF1FF06FEF09
:103ED8001FF067EF1FF012000101926F010192516C
:103EE800FD0B8AEC1FF001019251FD0B83EC1EF0D3
:103EF8001200026E02C091FF94B085EF1FF087EFA9
:103F08001FF080EF1FF06DEC1EF012000101906FA2
:103F1800010190510001A91101018E6F4E0EE9ECCB
:103F280014F01200126E12C20DF013C20EF01250ED
:103F380054EC1BF0125040EC20F012000E01DA8510
:103F4800DAB5A9EF1FF0ABEF1FF0A4EF1FF01200D6
:103F58000E01DA81DAB1B3EF1FF0B5EF1FF0AEEF63
:103F68001FF012000E01DA83DAB3BDEF1FF0BFEFC6
:103F78001FF0B8EF1FF01200076E0750FD0B02ECA0
:103F880020F00750FD0BE7EC1EF012000E0136ABD7
:103F9800D0EF1FF0D2EF1FF0CAEF1FF098501200B9
:103FA8000E0137A3DAEF1FF0DCEF1FF0D4EF1FF09C
:103FB800EA5112000101976F000E0101936F9751AA
:103FC80056EC1EF012000101976F010E0101936F6C
:103FD800975156EC1EF01200968496B4F6EF1FF037
:103FE800F8EF1FF0F1EF1FF01200968096B0FFEF88
:103FF8001FF001EF20F0FAEF1FF01200056E0550D8
:104008000001A911036E4E0EB5EC15F0120096844E
:1040180096B411EF20F013EF20F00CEF20F012000F
:10402800968096B01AEF20F01CEF20F015EF20F0E4
:1040380012000001AB85AB510809DEEC1FF012003D
:104048000001AB95AB510809DEEC1FF0120001012D
:10405800986F01019851E7EC1FF012000C6E010EE9
:10406800086E0C50C0EC1EF012000C6E000E086EAC
:104078000C50C0EC1EF012000D6E0D5032EC20F00A
:0740880012000A0D1A2010BE
:0240900012001C
:10E32C00002D2D2D2D2D424547494E20434552544D
:10E33C00494649434154452D2D2D2D2D0A4D494912
:10E34C00442B44434341754143464159366F442B5A
:10E35C00416A48364D4E664266444568676851418D
:10E36C0052305936474D41304743537147534962F8
:10E37C003344514542437755414D4947760A4D51F7
:10E38C007377435159445651514745774A4A546A19
:10E39C0045554D424947413155454341774C5455BC
:10E3AC00464951564A4255306855556B4578447A22
:10E3BC00414E42674E564241634D426B31560A54B0
:10E3CC00554A425354455A4D426347413155454392
:10E3DC00677751516B68505430314A5456465556F4
:10E3EC00454A796232746C636A45584D42554741CF
:10E3FC003155454377774F5357395549456C790A11
:10E40C00636D6C6E5958527062323478466A41555D
:10E41C0042674E5642414D4D44554A495430394E4F
:10E42C005355315256465167513045784C544172D0
:10E43C0042676B71686B6947397730424351455776
:10E44C000A486D4A6F623239746153357159577885
:10E45C0068633246755A476868636D467551476400
:10E46C007459576C734C6D4E7662544167467730D5
:10E47C00794E5441334D6A45774E5451324D545276
:10E48C00610A474138794D5449314D4459794E7A96
:10E49C0041314E4459784E466F7767623478437AEF
:10E4AC00414A42674E5642415954416B6C4F4D5252
:10E4BC00517745675944565151494441744E515511
:10E4CC0068420A556B465453465253515445504D6D
:10E4DC0041304741315545427777475456564E5156
:10E4EC006B464A4D526B77467759445651514B44C3
:10E4FC004242435345395054556C4E555652555122
:10E50C006C4A500A533056534D5263774651594416
:10E51C005651514C4441354A6231516753584A79EE
:10E52C006157646864476C76626A456C4D434D472D
:10E53C0041315545417777636258463064433569BC
:10E54C00614739760A62576C71595778686332465D
:10E55C00755A476868636D46754C6D4E76625445C6
:10E56C00744D437347435371475349623344514588
:10E57C004A41525965596D6876623231704C6D70F2
:10E58C00686247467A0A5957356B6147467959573D
:10E59C0035415A32316861577775593239744D4962
:10E5AC004942496A414E42676B71686B69473977DA
:10E5BC0030424151454641414F43415138414D490B
:10E5CC00494243674B430A4151454171554F63667C
:10E5DC00686D6F612B6677477230316A656B2B61A2
:10E5EC0065696435334A4E417979642F4D5434361C
:10E5FC00434B5247312B6F696F3057724B536466E4
:10E60C00556A38386B544D0A303162654157554361
:10E61C0050687A2B4E51567336422B61394E30442A
:10E62C00586D70667161434E643830795A62564544
:10E63C00324469346154416978677866324B4C4E88
:10E64C00563667483338322B0A4431486C38584EAA
:10E65C00394D74734C6347347A32696A47532B359E
:10E66C0059517247787648576F7549396D6B5273AB
:10E67C0035373333633374615449724A755155518C
:10E68C0077626F6A62416964330A67773478504302
:10E69C00686631354E4871477A394F544B4A6A3463
:10E6AC00625048674A353871567143473671612F4D
:10E6BC004C637A755158317139744C63512F434CFA
:10E6CC0071644947547064746C370A6C33476D67D6
:10E6DC0077526356714F474C6B50503751385A75BF
:10E6EC004956396F2B734A395968382B7855506312
:10E6FC00486C362F7068523771634257634D4559D9
:10E70C007266772B4F573052792B790A766D687970
:10E71C0050564169564F534C4E735A546C433264A5
:10E72C006F6D724F64774944415141424D413047BE
:10E73C0043537147534962334451454243775541E2
:10E74C004134494241514272637758420A505259FE
:10E75C00306B7354544A624B544D683671506A4353
:10E76C00526E767230585871714F6C5A6C414357D7
:10E77C0058532F61775345757657646B45527A37EA
:10E78C00696C316B6D63355471765941300A305A6E
:10E79C006E495653714B44334F704F2B67664A7812
:10E7AC004D4438714E68476F787775594C366A64AA
:10E7BC00417748306B41736131786D7536685759C4
:10E7CC006269686A35624E6851706643694E0A31F7
:10E7DC00696E71774B6A7A3170717170342F414C5C
:10E7EC00664862307536424D4F6F33494C412F4964
:10E7FC0030546772316566305237763451316371FB
:10E80C00754F796631523130446A44696A504E0A08
:10E81C00337071665861702B535359342B703465B7
:10E82C00446D6252744B59583432386C496F3636D9
:10E83C006D7353465A383356466356434F31702BDB
:10E84C00354138434F413970794946752B636449DA
:10E85C000A41622F5566483579386C7667435562A4
:10E86C004F4E642F646C78457265746666556430DF
:10E87C0061695A5834595135446333746C38735147
:10E88C007566655979676F52422F77437A46507196
:10E89C00450A3645637079315A4E41775437637760
:10E8AC00774B0A2D2D2D2D2D454E4420434552548A
:10E8BC00494649434154452D2D2D2D2D0A005379A0
:10E8CC007374656D2072657374617274656420660F
:10E8DC006F7220416C6C20506861736520446574C4
:10E8EC00656374696F6E207769746820696E636FF5
:10E8FC006D706C6574652049727269676174696FBB
:10E90C006E20666F72206669656C642000537973A3
:10E91C0074656D2072657374617274656420666FC2
:10E92C007220506F77657220496E746572727570C3
:10E93C0074207769746820696E636F6D706C657490
:10E94C00652049727269676174696F6E20666F72B7
:10E95C00206669656C64200053797374656D207250
:10E96C00657374617274656420696E2044696167B3
:10E97C006E6F73746963204D6F646520776974687A
:10E98C0020696E636F6D706C657465204972726975
:10E99C00676174696F6E20666F72206669656C645E
:10E9AC00200053797374656D207265737461727491
:10E9BC00656420666F72204C6F7720506F7765729C
:10E9CC0020496E207769746820696E636F6D706C76
:10E9DC006574652049727269676174696F6E20662F
:10E9EC006F72206669656C64200053797374656D71
:10E9FC002072657374617274656420666F72205343
:10EA0C007461636B204572726F7220776974682031
:10EA1C00696E636F6D706C6574652049727269679D
:10EA2C006174696F6E20666F72206669656C642014
:10EA3C000053797374656D207265737461727465BB
:10EA4C006420666F72205744542054696D656F754D
:10EA5C0074207769746820696E636F6D706C65746F
:10EA6C00652049727269676174696F6E20666F7296
:10EA7C00206669656C6420004C6F77205068617368
:10EA8C00652063757272656E742064657465637459
:10EA9C0065642C20616374696F6E73207375737079
:10EAAC00656E6465642C20706C656173652072659D
:10EABC0073746172742073797374656D0053797318
:10EACC0074656D2041757468656E746963617465F5
:10EADC006420776974682050686173652066616989
:10EAEC006C7572652C2073757370656E64696E67D6
:10EAFC0020616C6C20616374696F6E730053797361
:10EB0C0074656D20726573746172746564207769C5
:10EB1C007468207068617365206661696C757265D4
:10EB2C002C2073757370656E64696E6720616C6CF4
:10EB3C0020616374696F6E730053797374656D2013
:10EB4C007265736574206F636375727265642C20D3
:10EB5C006C6F67696E20636F646520726573657492
:10EB6C0020746F20466163746F72792073657474BE
:10EB7C00696E670053797374656D20726573657483
:10EB8C00206F636375727265642C204972726967B9
:10EB9C006174696F6E2073657474696E6720646547
:10EBAC006C65746564005068617365206661696C9E
:10EBBC007572652064657465637465642C20737567
:10EBCC007370656E64696E6720616C6C2061637430
:10EBDC00696F6E73000000300060009000C000F0A0
:10EBEC0000200150018001B001E0011002400270D0
:10EBFC0002A002D0020003300360039003C003F0B4
:10EC0C000353797374656D207265737461727465E6
:10EC1C006420666F7220416C6C20506861736520B3
:10EC2C00446574656374696F6E0053797374656DB4
:10EC3C002072657374617274656420666F72205003
:10EC4C006F77657220496E746572727570740053BB
:10EC5C00797374656D207265737461727465642068
:10EC6C00696E20446961676E6F73746963206D6FA0
:10EC7C0064650053797374656D2072657374617289
:10EC8C0074656420666F7220737461636B206572A7
:10EC9C00726F720053797374656D20726573746151
:10ECAC007274656420666F72205744542074696DC9
:10ECBC00656F75740053797374656D207265737428
:10ECCC00617274656420666F72204C6F7720506F90
:10ECDC00776572005068617365206C6F7373206484
:10ECEC006574656374656400416C6C205068617375
:10ECFC006520646574656374656400497272696744
:10ED0C006174696F6E204E6F3A0031323334353690
:10ED1C00373839313200494E4A4543540049444C46
:10ED2C004500416374696F6E2053757370656E6432
:10ED3C0065642E2049727269676174696F6E207305
:10ED4C0063686564756C656420746F206E65787497
:10ED5C0020646179207769746820666572746967CC
:10ED6C006174696F6E20666F72204669656C6420F1
:10ED7C0000416374696F6E2053757370656E6465C2
:10ED8C00642E2049727269676174696F6E207363B7
:10ED9C00686564756C656420746F206E657874208A
:10EDAC00646179207769746820666572746967613B
:10EDBC0074696F6E20666F72204669656C64200002
:10EDCC00416374696F6E2053757370656E6465640E
:10EDDC002E2049727269676174696F6E2073636863
:10EDEC006564756C656420746F206E65787420643E
:10EDFC007565206461746520666F72204669656C68
:10EE0C00642000496E6A6563746F722073746F704E
:10EE1C0070656420776974682066657274696C69C2
:10EE2C007A6572206C6576656C2073656E736F7293
:10EE3C00206661696C75726520666F722066696503
:10EE4C006C642000416374696F6E20537573706538
:10EE5C006E6465642E2049727269676174696F6EA5
:10EE6C00207363686564756C656420746F206E65CF
:10EE7C0078742064617920666F72204669656C64D1
:10EE8C002000496E6A6563746F722073746F7070C2
:10EE9C0065642077697468206C6F7720666572747E
:10EEAC00696C697A6572206C6576656C20666F7228
:10EEBC00206669656C6420004D6F697374757265AA
:10EECC002073656E736F72206973206661696C655F
:10EEDC00642C2056616C7665207374617274656461
:10EEEC0020666F72206669656C64200041637469EA
:10EEFC006F6E20636F6D706C6574656420666F72E5
:10EF0C0020647565206669656C64732E204D6F7482
:10EF1C006F72207377697463686564206F6666002E
:10EF2C00576574206669656C6420646574656374E8
:10EF3C0065642E2056616C7665206E6F7420737438
:10EF4C00617274656420666F72206669656C6420FA
:10EF5C000056616C76652073746F707065642077F1
:10EF6C006974686F757420726573706F6E73652049
:10EF7C0066726F6D206669656C64200056616C76F4
:10EF8C006520736B69707065642077697468206E96
:10EF9C006F20726573706F6E73652066726F6D2073
:10EFAC006669656C642000506C65617365207265E0
:10EFBC00706C616365204261747465727920666F50
:10EFCC0072204669656C64200042617474657279C4
:10EFDC00205265736574204F636375726564206697
:10EFEC006F72204669656C642000506C65617365B6
:10EFFC002073796E632073797374656D2074696DF9
:10F00C0065206D616E75616C6C79005379737465F4
:10F01C006D2074696D652069732073657420746F3D
:10F02C00206C6F63616C2074696D6500496E6A6554
:10F03C0063746F722073746F7070656420666F7286
:10F04C00206669656C642000496E6A6563746F7232
:10F05C00207374617274656420666F7220666965D2
:10F06C006C642000506C65617365207265706C6116
:10F07C006365205254432062617474657279005642
:10F08C00616C76652073746F7070656420666F7246
:10F09C00206669656C64200056616C76652073741B
:10F0AC00617274656420666F72206669656C642099
:10F0BC00002A454E41424C45494E434F525245431E
:10F0CC005423004C4F5742415454455259534C41D0
:10F0DC005645002B434D515454434F4E4E4C4F53B9
:10F0EC00543A002B434D515454434F4E4E454354C8
:10F0FC003A002A4143544956454552524F52230037
:10F10C002A454E41424C454552524F5223002A4308
:10F11C00545345544552524F5223002B434D515496
:10F12C005453544152543A002A4652455145525276
:10F13C004F5223002A464545444552524F52230014
:10F14C002A444143544956454F4B23002A444953C2
:10F15C0041424C454F4B23002A4D41504552524F92
:10F16C005223002A4143544956454F4B23002A450C
:10F17C004E41424C454F4B23005245534554534C42
:10F18C00415645002B434D5154545355423A002A95
:10F19C0043544552524F5223002A414C4956454F35
:10F1AC004B23002A41554552524F5223002A4154B9
:10F1BC0052454144593A002A464545444F4B230099
:10F1CC002A484F4C444F4B23002A4646554C4C235F
:10F1DC00002A5246554C4C23002A4D41504F4B238C
:10F1EC00002A5345544F4B230050444E2041435466
:10F1FC0000504220444F4E45004558545241435410
:10F20C0000444143544956450044495341424C45FE
:10F21C00002A464C4F5723002A524C4F5723002AA2
:10F22C0043544F4B23002A41554F4B230053454E1B
:10F23C00534F52004D4153544552002B43434C4BBA
:10F24C003A0041435449564500454E41424C450015
:10F25C00414C495645004552524F5200534C415671
:10F26C0045002B43474556004353513A2000435425
:10F27C0053455400464441544100414C49564500C5
:10F28C004652455100464545440054494D450048B9
:10F29C004F4C440041434B004F46460043545600EC
:10F2AC00435420004D415000534554004F4E004FE5
:10F2BC004B0041550041542B434D515454434F4E38
:10F2CC004E4543543D302C227463703A2F2F6D7190
:10F2DC0074742E62686F6F6D696A616C6173616EB4
:10F2EC0064686172616E2E636F6D3A313838332207
:10F2FC002C323430302C312C22626A755573657285
:10F30C00222C22426F6F6D69316D6F6F62220D007E
:10F31C0041542B4347534F434B434F4E543D312C99
:10F32C00224950222C22434D4E4554220D0A0041B5
:10F33C00542B434D515454414343513D302C2245A1
:10F34C0053503332222C300D00466572746967615C
:10F35C0074696F6E2044697361626C65643A005322
:10F36C00797374656D205265736574204F63637592
:10F37C00727265640053797374656D205265737491
:10F38C006172746564205769746800537573706595
:10F39C006E64656420416C6C20416374696F6E739C
:10F3AC000041542B434D515454434F4E4E454354FE
:10F3BC003D302E2E2E00202020202020202020200A
:10F3CC0020202020202020202020002A2A2A4661CC
:10F3DC0063746F72792052657365742A2A2A2A0025
:10F3EC0053797374656D20436F6D706C6574652013
:10F3FC00446174610053797374656D2054696D6553
:10F40C00204E6F742073796E630043757272656E53
:10F41C007420496E2046756C6C204C6F61640049F9
:10F42C007272692E4461746120436F6E66696775F0
:10F43C0072656400466572742E4461746120436F7A
:10F44C006E6669677572656400497272692E204E2A
:10F45C006F7420436F6E66696775726564004972DC
:10F46C0072692E206E6F7420636F6E666967757299
:10F47C0065640053657175656E63652044656163F1
:10F48C0074697661746564004E657720525443420A
:10F49C0061747465727920466F756E6400496E6391
:10F4AC006F7272656374204C6F63616C2054696D6C
:10F4BC0065004669656C642056616C766520496E02
:10F4CC004163746976650057697468204C6F7720C6
:10F4DC00466572742E204C6576656C004E657874AA
:10F4EC00205363686564756C6520536574204F6E9A
:10F4FC0000546F2044656C657465204972726967AD
:10F50C006174696F6E00496E204E6F204C6F6164A0
:10F51C0020436F6E646974696F6E00526573657415
:10F52C0074696E6720436F6E74726F6C6C657200D9
:10F53C0053797374656D205265737461727465646C
:10F54C0020466F72005374617274696E6720507537
:10F55C006C736520636F756E740053796E63205302
:10F56C00797374656D204D616E75616C6C790049B1
:10F57C00727269676174696F6E20436F6D706C6530
:10F58C007465640041542B434D5154545355423DC2
:10F59C00302C32302C310D002B434D515454434FF1
:10F5AC004E4E4C4F53543A20302C310049727269F4
:10F5BC002E20446174612044697361626C6564003F
:10F5CC00466572742E2044617461204469736162D3
:10F5DC006C6564004665727469676174696F6E204E
:10F5EC0053746F70706564005068617365204C6F64
:10F5FC007373204465746563746564004665727446
:10F60C0069676174696F6E2053746172746564000C
:10F61C0046696C74726174696F6E2053657175659F
:10F62C006E636500576974682053656E736F722042
:10F63C004661696C75726500436865636B696E67DA
:10F64C002047534D205369676E616C00546F204303
:10F65C006865636B2047534D205369676E616C007E
:10F66C0042686F6F6D69204A616C73616E6468618A
:10F67C0072616E00576972654C65737320497272C2
:10F68C0069676174696F6E004C6F616420437574B7
:10F69C002D4F66662056616C756573004669656C06
:10F6AC0064204261747465727920416C65727400D7
:10F6BC005265706C616365205254432062617474AE
:10F6CC00657279004C6F6164696E6720537973744D
:10F6DC00656D20446174610041542B434D51545469
:10F6EC005055423D302C312C310D0041542B434DA3
:10F6FC005154545041594C4F41443D302C004154CD
:10F70C002B4347534F434B434F4E543D312E2E2EDC
:10F71C000045786974696E6720446961676E6F7320
:10F72C007469630043757272656E7420496E204E65
:10F73C006F204C6F61640053797374656D2054694C
:10F74C006D652053796E63656400497272696761F7
:10F75C0074696F6E20536B697070656400497272C6
:10F76C0069676174696F6E2053746F7070656400A3
:10F77C00557365722041757468656E746963617444
:10F78C0065640053657175656E63652041637469CA
:10F79C00766174656400576574204669656C6420F5
:10F7AC004465746563746564004972726967617459
:10F7BC00696F6E2053746172746564004D6F746F61
:10F7CC0072204C6F6164204375742D4F666600493E
:10F7DC00727269676174696F6E2052756E6E696EB4
:10F7EC00670050726573732052657365742042759F
:10F7FC0074746F6E00546F2043616C696272617433
:10F80C0065204D6F746F720053757370656E64690B
:10F81C006E6720416374696F6E7300466163746F29
:10F82C00727920436F6465205265736574004E6F66
:10F83C0020446961676E6F73746963204D656E75E2
:10F84C00004D6F746F722053776974636865642020
:10F85C004F464600525443204261747465727920BD
:10F86C006973206C6F7700466F72204E6577204469
:10F87C00657669636520494400497272692E20528D
:10F88C00657363686564756C6564004E6F742041C4
:10F89C00757468656E74696361746564004972722D
:10F8AC00692E204E6F74205374617274656400531A
:10F8BC00797374656D2052756E6E696E6720496E32
:10F8CC00005573657220526567697374726174694F
:10F8DC006F6E0053657276657220436F6E6E656352
:10F8EC0074696F6E0043616C6962726174696E67F2
:10F8FC00204D6F746F720046756C6C204C6F616498
:10F90C002043757272656E74004C6F77205068617D
:10F91C0073652043757272656E7400466572746906
:10F92C00676174696F6E20416C6572740052544348
:10F93C00204261747465727920416C657274004167
:10F94C00542B434D515454544F5049433D302C008B
:10F95C0046657274692E20506F7374706F6E656497
:10F96C00004472792052756E206465746563746509
:10F97C00640053797374656D20526573746172748D
:10F98C0065640057697468204E6F20526573706F00
:10F99C006E736500497272692E2069732052756E00
:10F9AC006E696E67004E6574776F726B205374725C
:10F9BC00656E67746800546F2044656C65746520CF
:10F9CC0053797374656D0057617465722046696C68
:10F9DC0074726174696F6E004E6F20436F6E66694E
:10F9EC006775726174696F6E00466163746F7279CA
:10F9FC002053657474696E677300497272692E20A6
:10FA0C004461746120526573657400466572746953
:10FA1C00676174696F6E20466C6F77005365742054
:10FA2C005375636365737366756C6C790049727298
:10FA3C0069676174696F6E20416C65727400415422
:10FA4C002B434D51545450494E473D300D004154B9
:10FA5C002B434D515454414343512E2E2E002B43D6
:10FA6C004D51545450494E473A20302C3000436885
:10FA7C0065636B696E67205369676E616C00496ED4
:10FA8C00636F7272656374204461746520004972FF
:10FA9C007269676174696F6E2044617461004972A8
:10FAAC0072692E20506F7374706F6E656400556EA2
:10FABC006B6E6F776E20436F6D6D616E6400466187
:10FACC0063746F72792050696E436F64650044698A
:10FADC0061676E6F73746963204D6F646500466F68
:10FAEC00756E64204C6F77205068617365005369A4
:10FAFC00676E616C20537472656E67746800506831
:10FB0C0061736520446574656374696F6E004D6F35
:10FB1C006973747572652053656E736F7200506FE4
:10FB2C0077657220496E74657272757074004154F9
:10FB3C002B434D51545453544152540D0045525281
:10FB4C004F5220496E204D5154542000436F6E6E1D
:10FB5C00656374696E6720746F200041542B434DAC
:10FB6C005154545355422E2E2E0053657474696EA5
:10FB7C00672053797374656D004552524F5220497A
:10FB8C006E204750525320004665746368696E6757
:10FB9C0020497272692E00466F72205072696F7222
:10FBAC00697479203A0054696D65722054696D65E9
:10FBBC00204F555400496E636F7272656374204414
:10FBCC00617461004973204E6F7420456E61626CE4
:10FBDC0065640053657474696E67204661696C6571
:10FBEC006400436F6E74726F6C2053797374656D1F
:10FBFC0000526573746172742053797374656D006F
:10FC0C0041757468656E7469636174696F6E0054D4
:10FC1C006F2044656C65746520557365720046658C
:10FC2C00746368696E67204D6F746F720041542B5A
:10FC3C00434D47443D312C340D0A004552524F522E
:10FC4C0020496E2047534D200041542B434D5154B5
:10FC5C00545354415254002F6E6F7469666963613A
:10FC6C0074696F6E00466F72204669656C64204E35
:10FC7C006F2E0043757272656E742054696D653A0F
:10FC8C0000466F72205072696F726974793A00463F
:10FC9C006F756E64204C6F772052544300546F2064
:10FCAC004C6F63616C2054696D65005068617365BD
:10FCBC00204661696C757265004669656C64204DFF
:10FCCC00617070696E67004472792052756E2041C4
:10FCDC006C6572740041542B434750414444520D9F
:10FCEC000A004750525320456E61626C6564004DAA
:10FCFC0051545420536572766963650047505253D2
:10FD0C00204E6574776F726B00466F722046696582
:10FD1C006C64203A20005365727665722054696DCC
:10FD2C006520004E6F20526573706F6E73652000F6
:10FD3C0041542B43475245473F0D0A0041542B4336
:10FD4C004E4D503D33380D007B227469746C652226
:10FD5C003A202200222C22626F6479223A2022005F
:10FD6C00466F72204669656C64203A00546F2043DC
