:040000004BEF03F0CF
:060008005F8259EFC3F016
:100018005F80D8CF8CF0E8CF8DF0E0CF8EF0E9CFBD
:100028008FF0EACF90F0D9CF91F0DACF92F0F6CFF7
:1000380093F0F7CF94F0F8CF95F0F5CF96F00E0146
:1000480033AB29EF00F02BEF00F0CBEF02F09096E6
:10005800339BE30ED46EB00ED36E0001BE2BA551B8
:10006800A611D8B43AEF00F03CEF00F0B5EF00F07D
:1000780090A041EF00F043EF00F0B5EF00F0A507C6
:10008800D8A0A6070101592B0001B351D8B44FEFEE
:1000980000F051EF00F059EF00F0030EB36157EF95
:1000A80000F059EF00F05AEF00F0B32B010E7B6F10
:1000B800030E7C6FE60E7D6FF20E7E6F000E806F72
:1000C800050E7F6FABECF2F000017B517C11D8A4D8
:1000D80070EF00F072EF00F08EEF00F0060E7B6F0D
:1000E800030E7C6FF20E7D6FF20E7E6F000E806F36
:1000F800050E7F6FABECF2F000017B517C11D8A4A8
:1001080088EF00F08AEF00F08EEF00F07FEC0FF040
:1001180001015A2B010159510001876F886B0101B8
:100128005A510001896F8A6B020E8927000E8A23B3
:100138008751895D8A51800A8B6F8851800A8B5953
:10014800D8A0A9EF00F0ABEF00F0ADEF00F0B5EFED
:1001580000F0000E0101376F000E0001A66F000EBF
:10016800A56F90A4BAEF00F0BCEF00F004EF02F026
:100178008DA8C1EF00F0C3EF00F0DEEF00F0010141
:1001880022511A1907E123511B19D8A4CEEF00F008
:10019800D0EF00F0DAEF00F08D98000E1B6F000E24
:1001A8001A6F0A4B0B2B5E2B0EEF01F01A4B1B2B11
:1001B8000EEF01F08DB8E3EF00F0E5EF00F00EEF81
:1001C80001F0010112510A1907E113510B19D8A4C2
:1001D800F0EF00F0F2EF00F00CEF01F062515E5D1D
:1001E800D8B0F9EF00F0FBEF00F004EF01F08D88D4
:1001F8001A4B1B2B000E0B6F000E0A6F0EEF01F04F
:10020800010E12250A6F000E13210B6F0EEF01F07D
:100218000A4B0B2B8DAA13EF01F015EF01F030EF0D
:1002280001F001012051181907E121511919D8A429
:1002380020EF01F022EF01F02CEF01F08D9A000E73
:10024800196F000E186F084B092B5D2B60EF01F03A
:10025800184B192B60EF01F08DBA35EF01F037EF2D
:1002680001F060EF01F001011051081907E1115187
:100278000919D8A442EF01F044EF01F05EEF01F054
:1002880061515D5DD8B04BEF01F04DEF01F056EFD5
:1002980001F08D8A184B192B000E096F000E086F9C
:1002A80060EF01F0010E1025086F000E1121096F93
:1002B80060EF01F0084B092B8DAC65EF01F067EF9B
:1002C80001F082EF01F001011E51161907E11F51DB
:1002D8001719D8A472EF01F074EF01F07EEF01F066
:1002E8008D9C000E176F000E166F064B072B5C2BAC
:1002F800B2EF01F0164B172BB2EF01F08DBC87EF70
:1003080001F089EF01F0B2EF01F001010E51061979
:1003180007E10F510719D8A494EF01F096EF01F007
:10032800B0EF01F060515C5DD8B09DEF01F09FEF38
:1003380001F0A8EF01F08D8C164B172B000E076FFC
:10034800000E066FB2EF01F0010E0E25066F000ECB
:100358000F21076FB2EF01F0064B072B8FA6B7EFFF
:1003680001F0B9EF01F0D4EF01F001011C511419AB
:1003780007E11D511519D8A4C4EF01F0C6EF01F02B
:10038800D0EF01F08F96000E156F000E146F044B1E
:10039800052B5B2B04EF02F0144B152B04EF02F036
:1003A8008FB6D9EF01F0DBEF01F004EF02F00101A5
:1003B8000C51041907E10D510519D8A4E6EF01F015
:1003C800E8EF01F002EF02F05F515B5DD8B0EFEFAC
:1003D80001F0F1EF01F0FAEF01F08F86144B152BC5
:1003E800000E056F000E046F04EF02F0010E0C25DD
:1003F800046F000E0D21056F04EF02F0044B052B6E
:10040800630E0001BD19D8A40CEF02F00EEF02F044
:1004180012EF02F0000EBE6FCBEF02F0BD05D8A4BC
:1004280018EF02F01AEF02F02CEF02F0010152511E
:100438000001BE19D8A423EF02F025EF02F02CEF3B
:1004480002F0000EBE6F8A86020EBD6FCBEF02F07F
:10045800020EBD19D8A433EF02F035EF02F045EFD4
:1004680002F0B451BE19D8A43CEF02F03EEF02F0FE
:1004780045EF02F0000EBE6F8A96030EBD6FCBEFFC
:1004880002F0030EBD19D8A44CEF02F04EEF02F0B3
:100498005EEF02F0B551BE19D8A455EF02F057EF40
:1004A80002F05EEF02F0000EBE6F8A88040EBD6F88
:1004B800CBEF02F0040EBD19D8A465EF02F067EF88
:1004C80002F077EF02F0B451BE19D8A46EEF02F033
:1004D80070EF02F077EF02F0000EBE6F8A98050EFB
:1004E800BD6FCBEF02F0050EBD19D8A47EEF02F068
:1004F80080EF02F090EF02F0B551BE19D8A487EF53
:1005080002F089EF02F090EF02F0000EBE6F8A8AC7
:10051800060EBD6FCBEF02F0060EBD19D8A497EFFB
:1005280002F099EF02F0A9EF02F0B451BE19D8A475
:10053800A0EF02F0A2EF02F0A9EF02F0000EBE6FEA
:100548008A9A070EBD6FCBEF02F0070EBD19D8A42B
:10055800B0EF02F0B2EF02F0CBEF02F0BE51876FBE
:10056800886B010126510001871909E10101275112
:1005780000018819D8A4C3EF02F0C5EF02F0CBEF51
:1005880002F0000EBE6F010EBD6FCBEF02F00E0140
:1005980038A1D1EF02F0D3EF02F0D8EF02F0909635
:1005A8000101552B0E01389138A5DDEF02F0DFEF80
:1005B80002F033EF03F090963895F00EC86EDC0E1B
:1005C800C76E0101542B5451585DD8B0EEEF02F0BC
:1005D800F0EF02F024EF03F00001AF51D8A4F7EFD9
:1005E80002F0F9EF02F024EF03F0010EAF6F000EF6
:1005F8000101546FC9903B51D8B405EF03F007EFE0
:1006080003F00BEF03F0010E3A6F33EF03F04E5196
:10061800D8B411EF03F013EF03F017EF03F0010E56
:100628004D6F33EF03F00001AC51D8B41EEF03F067
:1006380020EF03F033EF03F0000EAC6F33EF03F05D
:100648000001AF51D8B42BEF03F02DEF03F033EFD7
:1006580003F0000E0101546FC99033EF03F096C008
:10066800F5FF95C0F8FF94C0F7FF93C0F6FF92C05E
:10067800DAFF91C0D9FF90C0EAFF8FC0E9FF8EC0B2
:10068800E0FF8DC0E8FF8CC0D8FF5F90100092EFAC
:10069800FEF0D4EC0AF0050E0301D86F0F0ED76FE9
:1006A800F10EE82EFED7D72FFCD7D82FFAD70101A5
:1006B8003E51D8A462EF03F064EF03F0A3EF03F018
:1006C800010E2D6F010E3E6F020EC7EC10F0030EE7
:1006D800C7EC10F0040EC7EC10F0780E01019F6F04
:1006E800FF0EA06F010EA16F32ECFAF02B0E010184
:1006F8009F6FFB0EA06F020EA16F32ECFAF0A5EC13
:10070800FFF0010EC7EC10F07D0E01019F6F010E86
:10071800A06F010EA16F32ECFAF0F40E0301D86F4E
:10072800820ED76F050EE82EFED7D72FFCD7D82F0D
:10073800FAD790EC05F044EC0AF024EC06F012002D
:10074800050E01018C6F0F0E8B6FF10EE82EFED790
:100758008B2FFCD78C2FFAD7BD0EF66EEC0EF76EEA
:10076800000EF86E0900F5CF8BF10900F5CF8CF17A
:10077800010E01018B25886F000E8C21896FA5C0A1
:100788008AF101EC0FF0050E01018C6F0F0E8B6FD3
:10079800F10EE82EFED78B2FFCD78C2FFAD7BD0E83
:1007A800F66EEC0EF76E000EF86E0900F5CF8BF1C1
:1007B8000900F5CF8CF1020E01018B25886F000E20
:1007C8008C21896F0001A65101018A6F01EC0FF09D
:1007D800050E01018C6F0F0E8B6FF10EE82EFED700
:1007E8008B2FFCD78C2FFAD712000101A96F000EAE
:1007F8000001C66F020E0101A86F000E4D6FA9C15E
:10080800A0F10101A851D1ECE0F0010E0001C6658C
:1008180010EF04F012EF04F003EF04F001013A5175
:10082800D8A419EF04F01BEF04F023EF04F04D51A6
:10083800D8B421EF04F023EF04F02BEF04F0000EFE
:100848000001A06F000E9F6F010E01014D6FA951AD
:100858002D0D620EF324D96E050EF420DA6E9FC0BA
:100868008EF1A0C08FF1000E916F640E906FC5ECF1
:1008780007F0DE5001018E5DDE508F59D8A047EF9A
:1008880004F049EF04F04CEF04F0010E4DEF04F0D2
:10089800000E1200050E01018C6F0F0E8B6FF10E0A
:1008A800E82EFED78B2FFCD78C2FFAD7BD0EF66E0D
:1008B800EC0EF76E000EF86E0900F5CF8BF109000B
:1008C800F5CF8CF1030E01018B25886F000E8C216A
:1008D800896F24C18AF101EC0FF0050E01018C6FBC
:1008E8000F0E8B6FF10EE82EFED78B2FFCD78C2FB7
:1008F800FAD7BD0EF66EEC0EF76E000EF86E090014
:10090800F5CF8BF10900F5CF8CF1040E01018B2591
:10091800886F000E8C21896F25518A6F01EC0FF0CA
:10092800050E01018C6F0F0E8B6FF10EE82EFED7AE
:100938008B2FFCD78C2FFAD71200000E0101A36F62
:10094800000EA26F010E416F030EA0ECFCF08F8029
:10095800050E0101A16F0F0EA06FF10EE82EFED754
:10096800A02FFCD7A12FFAD74AEC0DF088C1A4F12B
:1009780089C1A5F18F900101A451A511D8A4C7EF91
:1009880004F0C9EF04F0EEEF04F0010E0001AE6FC1
:10099800060E77EC0EF0090E0101A16F1E0EA06F76
:1009A800E40EE82EFED7A02FFCD7A12FFAD700F02F
:1009B80074EC0AF0090E0101A16F1E0EA06FE40E7F
:1009C800E82EFED7A02FFCD7A12FFAD700F0010EF2
:1009D800F2EF04F0060EE7EC10F0000E1200290EFC
:1009E8000101A36F960EA26F7F0EE82EFED7A22FED
:1009F800FCD7A32FFAD70101535139EC0EF00101AE
:100A0800536F0001B85139EC0EF00001B86FB951BD
:100A180039EC0EF00001B96FBA5139EC0EF0000153
:100A2800BA6FBB5139EC0EF00001BB6FBC5139EC09
:100A38000EF00001BC6F67EC11F0D00EF6EC10F070
:100A4800000EF6EC10F001015351F6EC10F0000125
:100A5800B851F6EC10F00001B951F6EC10F0010EA7
:100A6800F6EC10F00001BA51F6EC10F00001BB51A1
:100A7800F6EC10F00001BC51F6EC10F05DEC11F052
:100A880012008D027D02650275025D0255024D025B
:100A98006D028502F002001F1C1F1E1F1E1F1F1E55
:100AA8001F1E1F1F001F1E1F1E1F1F1E1F1E1F3061
:100AB80031323334353637383900000103161C0813
:100AC8000000613064316438363638646438001F99
:100AD8001115151115111F02040818060408100035
:100AE80000040A151F000004071C071C071C04004B
:100AF800001F111B151F00040E1F1F1F0E040415D5
:100B08000E150E04040400040E0E0E1F000400004F
:070B18000E1517110E00007D
:100B2000070E0001C36F0C0EC36599EF05F09BEF34
:100B300005F09DEF05F0CDEF05F0050E01018C6F7E
:100B40000F0E8B6FF10EE82EFED78B2FFCD78C2F5C
:100B5000FAD7BF0EF66EEC0EF76E000EF86E0900B7
:100B6000F5CF8BF10900F5CF8CF10001C3510101E4
:100B70008B25886F000E8C21896F760E0001C325AE
:100B8000D96EDA6A010EDA22DF5001018A6F01ECB8
:100B90000FF00001C32B93EF05F0050E01018C6FE0
:100BA0000F0E8B6FF10EE82EFED78B2FFCD78C2FFC
:100BB000FAD71200000E0001C36F5F0EC365E3EFAA
:100BC00005F0E5EF05F0E7EF05F017EF06F0050E8D
:100BD00001018C6F0F0E8B6FF10EE82EFED78B2F5D
:100BE000FCD78C2FFAD7C10EF66EEC0EF76E000E06
:100BF000F86E0900F5CF8BF10900F5CF8CF10001FB
:100C0000C35101018B25886F000E8C21896F000E66
:100C10000001C325D96EDA6A050EDA22DF50010120
:100C20008A6F01EC0FF00001C32BDDEF05F0050E1C
:100C300001018C6F0F0E8B6FF10EE82EFED78B2FFC
:100C4000FCD78C2FFAD71200000E0001C36F0B0ED9
:100C5000C3652DEF06F02FEF06F031EF06F061EFE0
:100C600006F0050E01018C6F0F0E8B6FF10EE82E52
:100C7000FED78B2FFCD78C2FFAD7C50EF66EEC0E55
:100C8000F76E000EF86E0900F5CF8BF10900F5CF75
:100C90008CF10001C35101018B25886F000E8C215E
:100CA000896F400E0001C325D96EDA6A020EDA227E
:100CB000DF5001018A6F01EC0FF00001C32B27EF19
:100CC00006F0050E01018C6F0F0E8B6FF10EE82EF2
:100CD000FED78B2FFCD78C2FFAD71200D59E090E8A
:100CE00001019B6F1E0E9A6FE40EE82EFED79A2F1D
:100CF000FCD79B2FFAD700F08A96050E01019B6F57
:100D00000F0E9A6FF10EE82EFED79A2FFCD79B2F6D
:100D1000FAD78A98050E01019B6F0F0E9A6FF10E9C
:100D2000E82EFED79A2FFCD79B2FFAD78A9A050E6A
:100D300001019B6F0F0E9A6FF10EE82EFED79A2FCE
:100D4000FCD79B2FFAD79090050E01019B6F0F0ED9
:100D50009A6FF10EE82EFED79A2FFCD79B2FFAD769
:100D6000010EE7EC10F0020EE7EC10F012000101AA
:100D70008B6FE40E00D000D0E82EFCD700D000D05E
:100D8000FBEC0FF0E40E00D000D0E82EFCD700D032
:100D900000D0B4EC11F0E40E00D000D0E82EFCD767
:100DA00000D000D001018B51FE0B05EC11F0E40ED8
:100DB00000D000D0E82EFCD700D000D0FBEC0FF024
:100DC000E40E00D000D0E82EFCD700D000D0010106
:100DD0008A5105EC11F0E40E00D000D0E82EFCD7CB
:100DE00000D000D0ABEC11F0E40E00D000D0E82E23
:100DF000FCD700D000D01200090E0101A16F1E0E19
:100E0000A06FE40EE82EFED7A02FFCD7A12FFAD7B3
:100E100000F09080010E77EC0EF0000E0001BE6F26
:100E2000D58EAD51D8B417EF07F019EF07F020EFCA
:100E300007F0010EBD6F020E77EC0EF022EF07F007
:100E4000630EBD6F000E0001B36F290E0101A16F8B
:100E5000960EA06F7F0EE82EFED7A02FFCD7A12FF5
:100E6000FAD790824A0E0101A16F0E0EA06F190EE3
:100E7000E82EFED7A02FFCD7A12FFAD79092120010
:100E800088C18EF189C18FF161EF07F08C07D8A07E
:100E90008D078AC1D9FF8BC1DAFF8A4B8B2B8EC19C
:100EA000E1FF8FC1E2FF8E4B8F2BDFCFE7FFE750D3
:100EB000D8A45DEF07F05FEF07F061EF07F075EF83
:100EC00007F001018C518D11D8A469EF07F06BEF89
:100ED00007F046EF07F075EF07F08EC1D9FF8FC11D
:100EE000DAFF000EDF6E8E4B8F2B8C07D8A08D079C
:100EF0008C2906E18D29D8A480EF07F082EF07F056
:100F00006DEF07F01200046EE40E00D000D0E82E62
:100F1000FCD700D000D02AEC10F0E40E00D000D0B6
:100F2000E82EFCD700D000D0CFEC11F0E40E00D0BA
:100F300000D0E82EFCD700D000D00450FE0B3AECD5
:100F400011F0E40E00D000D0E82EFCD700D000D085
:100F50002AEC10F0E40E00D000D0E82EFCD700D030
:100F600000D003503AEC11F0E40E00D000D0E82E8F
:100F7000FCD700D000D0C6EC11F0E40E00D000D0B9
:100F8000E82EFCD700D000D01200000E0101946FB3
:100F9000000E936F90519111D8B4D1EF07F0D3EFB9
:100FA00007F0FBEF07F0010E926FDBEF07F0D89030
:100FB00090379137922B91AFE0EF07F0E2EF07F017
:100FC000D7EF07F0D8909337943790518E5D9151B9
:100FD0008F59D8A0EEEF07F0F0EF07F0F5EF07F02C
:100FE00090518E5F91518F5B9381D8909133903364
:100FF000922FE2EF07F093C18EF194C18FF11200AE
:1010000021EF08F089C1F6FF8AC1F7FF000EF86EE4
:101010000D0EF76403D00800F55005D0F6CFE9FFB8
:10102000F7CFEAFFEF5020EC11F00101894B8A2B3A
:10103000D00E01018B6FC90EE82EFED78B2FFCD787
:1010400000D089C1F6FF8AC1F7FF000EF86E0D0EC1
:10105000F76403D00800F55005D0F6CFE9FFF7CFCD
:10106000EAFFEF500009D8A438EF08F03AEF08F093
:1010700002EF08F0120084C188F185C189F186C1B0
:101080008AF187C18BF12D0E01018C6F7F0E8D6F60
:10109000950E8E6F4C0E8F6FAAEC08F0010E0101B9
:1010A0008825846F000E8921856F000E8A21866F46
:1010B000000E8B21876F84C196F185C197F186C19F
:1010C00098F187C199F1120E6BEF08F0D89099331F
:1010D000983397339633E82E66EF08F096C194F173
:1010E00097C195F112000101896F000E0101892558
:1010F000D96EDA6A030EDA22300EDE18D8A483EF36
:1011000008F085EF08F08FEF08F0010E8925D96E01
:10111000DA6A030EDA22DF50CF0FA9EF08F0000ED3
:101120008925D96EDA6A030EDA22310EDE18D8A4C8
:101130009CEF08F09EEF08F0A8EF08F0010E89255B
:10114000D96EDA6A030EDA22DF50D90FA9EF08F060
:10115000FF0E1200000E0101906F000E916F000E45
:10116000926F000E936F88A1B8EF08F0BAEF08F005
:10117000C2EF08F08C5190278D5191238E5192230C
:101180008F519323D8908C378D378E378F37D890E7
:101190008B338A3389338833885189118A118B11B3
:1011A000D8A4D5EF08F0D7EF08F0B3EF08F090C15E
:1011B00088F191C189F192C18AF193C18BF112003A
:1011C000026E000E0224D96EDA6A030EDA22300EA5
:1011D000DE18D8A4EEEF08F0F0EF08F0FAEF08F010
:1011E000010E0224D96EDA6A030EDA22DF50CF0F25
:1011F00014EF09F0000E0224D96EDA6A030EDA2227
:10120000310EDE18D8A407EF09F009EF09F013EF4B
:1012100009F0010E0224D96EDA6A030EDA22DF50D9
:10122000D90F14EF09F0FF0E1200DAC1DEF1DBC1B5
:10123000DFF1000E0101016F000E006F33EF09F0C6
:10124000D8C1C7F1D9C1C8F1DE0EC96F010ECA6F8E
:10125000DCC1CBF1DDC1CCF1E8ECE9F00101C75113
:101260000027C8510123DEC1F6FFDFC1F7FF000EE2
:10127000F86E0800F5500009D8A441EF09F043EFDB
:1012800009F020EF09F000C1D8F101C1D9F1120035
:1012900001018A518B11D8B450EF09F052EF09F0D7
:1012A00076EF09F0010E8C6F5AEF09F0D8908A376B
:1012B0008B378C2B8BAF5FEF09F061EF09F056EFA6
:1012C00009F08A51885D8B518959D8A06AEF09F0DD
:1012D0006CEF09F070EF09F08A51885F8B51895BE0
:1012E000D8908B338A338C2F61EF09F088C188F155
:1012F00089C189F1120053C057F054C058F0000E54
:101300000101016F000E006F99EF09F051C040F02C
:1013100052C041F0570E426E000E436E55C044F06D
:1013200056C045F00DECEBF0405001010027415054
:10133000012357C0F6FF58C0F7FF000EF86E0800F3
:10134000F5500009D8A4A7EF09F0A9EF09F086EF3E
:1013500009F000C151F001C152F0120001018D6F7E
:10136000050E01018C6F0F0E8B6FF10EE82EFED76C
:101370008B2FFCD78C2FFAD7BD0EF66EEC0EF76EC6
:10138000000EF86E0900F5CF8BF10900F5CF8CF156
:10139000050E01018B25886F000E8C21896F8DC190
:1013A0008AF101EC0FF0050E01018C6F0F0E8B6FAF
:1013B000F10EE82EFED78B2FFCD78C2FFAD7120018
:1013C000050E01018C6F0F0E8B6FF10EE82EFED70C
:1013D0008B2FFCD78C2FFAD7BD0EF66EEC0EF76E66
:1013E000000EF86E0900F5CF8BF10900F5CF8CF1F6
:1013F000050E01018B25886F000E8C21896F91EC01
:1014000010F001018D6F050E01018C6F0F0E8B6FB7
:10141000F10EE82EFED78B2FFCD78C2FFAD70101C7
:101420008D51120001019E6FF7C19AF1F8C19BF135
:10143000F9C19CF1FAC19DF101019E510001A95D24
:10144000D8B025EF0AF027EF0AF02AEF0AF0A90535
:1014500001019E6FFF0E0101956FFF0E966F9E5169
:10146000976F986B95519727965198239A0E9725C9
:10147000D96E010E9821DA6EDF509425996F990587
:10148000800999EC11F01200050E01018C6F0F0E0E
:101490008B6FF10EE82EFED78B2FFCD78C2FFAD74F
:1014A000BD0EF66EEC0EF76E000EF86E0900F5CF6D
:1014B0008BF10900F5CF8CF1080E01018B25886FA7
:1014C000000E8C21896F3EC18AF101EC0FF0050EF0
:1014D00001018C6F0F0E8B6FF10EE82EFED78B2F54
:1014E000FCD78C2FFAD71200050E01018C6F0F0E5E
:1014F0008B6FF10EE82EFED78B2FFCD78C2FFAD7EF
:10150000BD0EF66EEC0EF76E000EF86E0900F5CF0C
:101510008BF10900F5CF8CF1060E01018B25886F48
:10152000000E8C21896FAEC08AF101EC0FF0050E20
:1015300001018C6F0F0E8B6FF10EE82EFED78B2FF3
:10154000FCD78C2FFAD71200050E01018C6F0F0EFD
:101550008B6FF10EE82EFED78B2FFCD78C2FFAD78E
:10156000BD0EF66EEC0EF76E000EF86E0900F5CFAC
:101570008BF10900F5CF8CF10D0E01018B25886FE1
:10158000000E8C21896FB2C08AF101EC0FF0050EBC
:1015900001018C6F0F0E8B6FF10EE82EFED78B2F93
:1015A000FCD78C2FFAD71200BD0EF66EEC0EF76E3C
:1015B000000EF86E0900F5CF8BF10900F5CF8CF124
:1015C000080E01018B25886F000E8C21896F91EC2C
:1015D00010F00009D8A4EFEF0AF0F2EF0AF0010EC4
:1015E000F3EF0AF0000E01013E6F050E01018C6F52
:1015F0000F0E8B6FF10EE82EFED78B2FFCD78C2FA2
:10160000FAD71200176EF7C113F0F8C114F0F9C140
:1016100015F0FAC116F017500001A95DD8B013EF0C
:101620000BF015EF0BF017EF0BF0A905176EFF0E7F
:101630000E6EFF0E0F6E1750106E116A0E501026B0
:101640000F501122130E1024D96E000E1120DA6EE5
:10165000DF500D24126E12048009F4EC11F0120018
:101660000101966F070E010196179639E842F80BB3
:10167000F80B400999EC11F0000E0101986F000E73
:10168000976F97519425D96E98519521DA6EDF5056
:10169000A2EC11F00101974B982B98BF59EF0BF07A
:1016A000985109E1080E975DD8A059EF0BF05BEF58
:1016B0000BF041EF0BF01200050E0101906F0F0EC1
:1016C0008F6FF10EE82EFED78F2FFCD7902FFAD711
:1016D0002A0E01018B25886F000E8C21896F20EE68
:1016E0002AF08D51D9268E51DA22DF508A6F01EC13
:1016F0000FF0050E0101906F0F0E8F6FF10EE82EA7
:10170000FED78F2FFCD7902FFAD71200050E0101BC
:10171000906F0F0E8F6FF10EE82EFED78F2FFCD734
:10172000902FFAD7290E01018B25886F000E8C218E
:10173000896F20EE29F08D51D9268E51DA22DF50A3
:101740008A6F01EC0FF0050E0101906F0F0E8F6F85
:10175000F10EE82EFED78F2FFCD7902FFAD712006C
:10176000050E0101906F0F0E8F6FF10EE82EFED760
:101770008F2FFCD7902FFAD7280E01018B25886F69
:10178000000E8C21896F20EE28F08D51D9268E51C4
:10179000DA22DF508A6F01EC0FF0050E0101906F25
:1017A0000F0E8F6FF10EE82EFED78F2FFCD7902FE4
:1017B000FAD7120088C18AF189C18BF1E3EF0BF0EF
:1017C0000101884B892B88C1F6FF89C1F7FF000E04
:1017D000F86E0D0EF76403D00800F55005D0F6CF73
:1017E000E9FFF7CFEAFFEF500009D8A4FAEF0BF0BA
:1017F000FCEF0BF0E0EF0BF001018A51885D886F80
:101800008B518959896F1200050E01018C6F0F0EE3
:101810008B6FF10EE82EFED78B2FFCD78C2FFAD7CB
:10182000BD0EF66EEC0EF76E000EF86E0900F5CFE9
:1018300088F10A00F5CF89F1B1C08AF101EC0FF00F
:10184000050E01018C6F0F0E8B6FF10EE82EFED787
:101850008B2FFCD78C2FFAD7120045EF0CF089C1E3
:10186000F6FF8AC1F7FF000EF86E0800F55013EC82
:1018700011F00101894B8A2BD00E01018B6FC90E2B
:10188000E82EFED78B2FFCD700D089C1F6FF8AC186
:10189000F7FF000EF86E0800F5500009D8A453EFCA
:1018A0000CF055EF0CF02FEF0CF01200000E0101C0
:1018B0008F6F6FEF0CF089C1D9FF8AC1DAFFDF505B
:1018C00020EC11F00101894B8A2B8F2BD00E0101E6
:1018D0008D6FC90EE82EFED78D2FFCD700D00101E9
:1018E0008F518D6F8E6B8B518D5D8C518E59D8A021
:1018F0007CEF0CF07EEF0CF05BEF0CF01200E40ECE
:101900000101E86F010EE96FE0C1EAF1E1C1EBF11D
:10191000000EEE6F000EED6F000EF46F000EF36F11
:10192000EA0ED86F010ED96FE2C1DAF1E3C1DBF143
:10193000E80EDC6F010EDD6F15EC09F00101ED51D1
:10194000E025D96EEE51E121DA6E000EDF6E120055
:101950000101896F0E01DA87D8A1B1EF0CF0B3EF66
:101960000CF0ACEF0CF0D5CE8AF1CBEC0EF001010F
:101970008951D8B4BEEF0CF0C0EF0CF0C4EF0CF0FE
:101980000E01DA9BC6EF0CF00E01DA8BDA89DAB9B8
:10199000CCEF0CF0CEEF0CF0C7EF0CF001018A5148
:1019A00012005D0E0001606F000E616F59C062F0A1
:1019B0005AC063F0000E666F000E656F000E6C6F0C
:1019C000000E6B6F620E516E000E526E5BC053F0D4
:1019D0005CC054F0600E556E000E566E7BEC09F044
:1019E000000165515924D96E66515A20DA6E000EF5
:1019F000DF6E120001C003F002C004F002EF0DF030
:101A0000014A022A01C0F6FF02C0F7FF000EF86E7D
:101A10000D0EF76403D00800F55005D0F6CFE9FFAE
:101A2000F7CFEAFFEF500009D8A419EF0DF01BEF34
:101A30000DF000EF0DF00350015C016E04500258F0
:101A4000026E12000F6E070E0F160F38E842F80BE9
:101A5000F80B4009F4EC11F0000E116E000E106E40
:101A600010500D24D96E11500E20DA6EDF50EDECBF
:101A700011F0104A112A11BE47EF0DF0115009E183
:101A8000080E105CD8A047EF0DF049EF0DF030EFD5
:101A90000DF01200050E01018B6F0F0E8A6FF10E13
:101AA000E82EFED78A2FFCD78B2FFAD7608060B044
:101AB0005CEF0DF05EEF0DF057EF0DF063CF8CF1A2
:101AC00001018D6B64508B6F8A6B8A518C138B5123
:101AD0008D138CC188F18DC189F11200000E0101B6
:101AE0008D6F87EF0DF089C1D9FF8AC1DAFFDF5012
:101AF00013EC11F00101894B8A2B8D2BD00E0101C3
:101B00008C6FC90EE82EFED78C2FFCD700D00101B8
:101B10008B518D5DD8A08FEF0DF091EF0DF073EF2D
:101B20000DF01200000E0101976F000E966FA5EFE9
:101B30000DF095C188F1896B93C18AF194C18BF145
:101B400071ECFBF00101964B972B96519125D96EC4
:101B500097519221DA6EDF50956F9551D8A4B3EF6B
:101B60000DF0B5EF0DF099EF0DF01200000E106EB4
:101B7000000E0F6EC7EF0DF00EC001F0026A0CC030
:101B800003F00DC004F0D7ECFBF00F4A102A0F5001
:101B90000A24D96E10500B20DA6EDF500E6E0E50F4
:101BA000D8A4D5EF0DF0D7EF0DF0BCEF0DF012007B
:101BB00001019BBFE6EF0DF09B5106E19A05D8B0FD
:101BC000E4EF0DF0E6EF0DF0F4EF0DF09AC19CF1AB
:101BD0009BC19DF19C1F9D1F9C4B9D2B9CC19AF10D
:101BE0009DC19BF1F8EF0DF09AC19AF19BC19BF159
:101BF000120008EF0EF094C1F6FF95C1F7FF000E3A
:101C0000F86E0800F550A2EC11F00101944B952BF1
:101C100094C1F6FF95C1F7FF000EF86E0800F5506D
:101C20000009D8A416EF0EF018EF0EF0FBEF0DF040
:101C3000120014BE26EF0EF0145006E11304D8B0C3
:101C400024EF0EF026EF0EF034EF0EF013C015F077
:101C500014C016F0151E161E154A162A15C013F0CC
:101C600016C014F038EF0EF013C013F014C014F0C7
:101C700012000101A06FA0C188F10101896B000E63
:101C80008B6F0A0E8A6FCCECFDF001018839F00BE6
:101C9000A16FA0C19AF19B6B000E9D6F0A0E9C6F05
:101CA0004CECFFF001019A51A111A16FA15112005A
:101CB000000E01019A6F68EF0EF094C1D9FF95C133
:101CC000DAFFDF50A2EC11F00101944B952B9A2B17
:101CD0009A51986F996B9651985D97519959D8A0E0
:101CE00074EF0EF076EF0EF05DEF0EF012000101D2
:101CF0009F6F01019F51020D000EF324D96E020E59
:101D0000F420DA6EDECF94F1DDCF95F19F5130EC07
:101D10000BF001019F29946F010E12EC0AF00101F2
:101D20009F51E6EC11F012008AB099EF0EF09BEF94
:101D30000EF0A4EF0EF0000E0101426F050EE7EC6D
:101D400010F0000EAFEF0EF0000E0101426F050E15
:101D500077EC0EF0000E0101406FA1EF0EF01200C3
:101D6000000E0001C36FC70EC365B9EF0EF0BBEFE5
:101D70000EF0BDEF0EF0C8EF0EF0000EC325D96EC9
:101D8000DA6A040EDA22000EDF6EC32BB3EF0EF018
:101D9000000EC46F12000E01D8B5D1EF0EF0D6EFD1
:101DA0000EF00101886B882BD8EF0EF00101886BD3
:101DB0000E01DA511F0B010188110009D8A4E3EFCD
:101DC0000EF0E5EF0EF0CBEF0EF01200000E00016A
:101DD000C36FC70EC365EFEF0EF0F1EF0EF0F3EF38
:101DE0000EF0FEEF0EF0000EC325D96EDA6A040E77
:101DF000DA22000EDF6EC32BE9EF0EF0000EC46F87
:101E0000120088C174FF01018951756E8AC176FF85
:101E10003F0E77167784F29E550E786EAA0E786E76
:101E2000778277B216EF0FF018EF0FF011EF0FF087
:101E3000F28E77941200000E0001C36FC70EC365C7
:101E400024EF0FF026EF0FF028EF0FF033EF0FF035
:101E5000000EC325D96EDA6A030EDA22000EDF6E99
:101E6000C32B1EEF0FF01200000E0001C36FC70E50
:101E7000C3653DEF0FF03FEF0FF041EF0FF04CEF78
:101E80000FF0000EC325D96EDA6A030EDA22000EB7
:101E9000DF6EC32B37EF0FF01200000E0001C36F8F
:101EA000190EC36556EF0FF058EF0FF05AEF0FF011
:101EB00065EF0FF0630EC325D96EDA6A010EDA22E0
:101EC000000EDF6EC32B50EF0FF01200000E00016A
:101ED000C36F020EC3656FEF0FF071EF0FF073EF7A
:101EE0000FF07EEF0FF0C70EC325D96EDA6A000E31
:101EF000DA22000EDF6EC32B69EF0FF01200000E26
:101F00000001C36FC70EC36588EF0FF08AEF0FF0B3
:101F10008CEF0FF097EF0FF0000EC325D96EDA6A41
:101F2000030EDA22000EDF6EC32B82EF0FF01200D9
:101F3000186E1850020D000EF324D96E020EF42014
:101F4000DA6EDECF0DF0DDCF0EF0185022EC0DF082
:101F500018280D6E010E02EC0BF01850FBEC11F07E
:101F60001200000E0001C36F020EC365BAEF0FF03E
:101F7000BCEF0FF0BEEF0FF0C9EF0FF0C70EC32597
:101F8000D96EDA6A000EDA22000EDF6EC32BB4EFD0
:101F90000FF01200000E0001C36FC70EC365D3EF30
:101FA0000FF0D5EF0FF0D7EF0FF0E2EF0FF0000ECC
:101FB000C325D96EDA6A030EDA22000EDF6EC32B58
:101FC000CDEF0FF012000101886F2F0E010188651F
:101FD000ECEF0FF0EEEF0FF0F9EF0FF03A0E886133
:101FE000F4EF0FF0F6EF0FF0F9EF0FF0010EFAEF4C
:101FF0000FF0000E120094B400EF10F005EF10F097
:102000000101886B882B07EF10F00101886B965057
:102010001F0B88110009D8A410EF10F012EF10F078
:10202000FBEF0FF012000101926F01019251F00BD2
:10203000906F9239F00B916FF00E911790518F11B4
:1020400004092DEC11F0010191518F1104092DECBF
:1020500011F0120094B42FEF10F033EF10F0016A7A
:10206000012A34EF10F0016A96501F0B011000098D
:10207000D8A43DEF10F03FEF10F02AEF10F012005F
:1020800001018D6F01018D51040953EC11F0050E12
:10209000E82EFED700F001018D51FB0B53EC11F03F
:1020A000A00E00D0E82EFDD71200FF0E01018A6FAE
:1020B000FF0E8B6F88C18CF189C18DF18A518C27FD
:1020C0008B518D238CC184F18DC185F1866B876B1B
:1020D0001200010188518A03F3CF8CF1F4CF8DF106
:1020E00088518B03F3508D2789518A03F3508D2734
:1020F0008CC188F18DC189F112000B6E0B50F00B71
:10210000096E0B38F00B0A6EF00E0A160950081013
:1021100004097BEC11F00A50081004097BEC11F063
:10212000120088C174FF01018951756E3F0E771648
:102130007780680E01018A6FE40EE82EFED78A2FA1
:10214000FCD700F076501200066E06500409BDEC74
:1021500011F0050EE82EFED700F00650FB0BBDEC8B
:1021600011F0A00E00D0E82EFDD71200010E99EC60
:1021700011F0030E0101956F700E946F5C0EE82E46
:10218000FED7942FFCD7952FFAD700F0120001014B
:102190009F6F010E0101946F9F5112EC0AF06A0EBD
:1021A0000101946FF40E956FF9EC0DF0120001012E
:1021B0008A6F8AC188F10F0E010188178A390F0BC7
:1021C0000F0B0A0DF3508825896F89511200010108
:1021D000996F12C294F113C295F10101995130EC3B
:1021E0000BF001019951E6EC11F012000101896F29
:1021F00089C1D5FE0E01D8B100EF11F002EF11F048
:10220000FAEF10F0CBEC0EF012000101896F89C1DA
:1022100091FF94B00EEF11F010EF11F009EF11F0F3
:10222000FBEC0FF012000101886F88C199FF0E01CD
:1022300036A91DEF11F01FEF11F017EF11F012008A
:102240000101886F88C1EBFE0E0137A12AEF11F062
:102250002CEF11F024EF11F0120001018E6F01013B
:102260008E51FD0B53EC11F001018E51FD0B40EC32
:1022700010F01200026E02C091FF94B042EF11F014
:1022800044EF11F03DEF11F02AEC10F01200126E45
:1022900012C20DF013C20EF0125022EC0DF01250CB
:1022A000FBEC11F0120001018C6F01018C5128111F
:1022B0008A6F4E0EB7EC06F012000E01DA85DAB521
:1022C00064EF11F066EF11F05FEF11F012000E01F4
:1022D000DA81DAB16EEF11F070EF11F069EF11F001
:1022E00012000E01DA83DAB378EF11F07AEF11F011
:1022F00073EF11F01200076E0750FD0BBDEC11F0EB
:102300000750FD0BA4EC10F012000E0136AB8BEF62
:1023100011F08DEF11F085EF11F0985012000E01C1
:1023200037A395EF11F097EF11F08FEF11F0EA510D
:1023300012000101936F000E01018F6F935113EC96
:1023400010F012000101936F010E01018F6F935184
:1023500013EC10F01200968496B4B1EF11F0B3EFC5
:1023600011F0ACEF11F01200968096B0BAEF11F0B8
:10237000BCEF11F0B5EF11F01200056E0550010130
:102380002811036E4E0E83EC07F01200968496B46B
:10239000CCEF11F0CEEF11F0C7EF11F012009680E4
:1023A00096B0D5EF11F0D7EF11F0D0EF11F0120089
:1023B00001012A852A51080999EC11F01200010146
:1023C0002A952A51080999EC11F012000101946F25
:1023D00001019451A2EC11F012000C6E010E086E76
:1023E0000C507DEC10F012000C6E000E086E0C50BC
:1023F0007DEC10F012000D6E0D50EDEC11F012009E
:09240000004014540A0D1A2010CA
:10E3E600002D2D2D2D2D424547494E204345525493
:10E3F600494649434154452D2D2D2D2D0A4D494958
:10E40600442B44434341754143464159366F442B9F
:10E41600416A48364D4E66426644456867685141D2
:10E4260052305936474D413047435371475349623D
:10E436003344514542437755414D4947760A4D513C
:10E446007377435159445651514745774A4A546A5E
:10E4560045554D424947413155454341774C545501
:10E46600464951564A4255306855556B4578447A67
:10E47600414E42674E564241634D426B31560A54F5
:10E48600554A425354455A4D4263474131554543D7
:10E49600677751516B68505430314A545646555639
:10E4A600454A796232746C636A45584D4255474114
:10E4B6003155454377774F5357395549456C790A56
:10E4C600636D6C6E5958527062323478466A4155A3
:10E4D60042674E5642414D4D44554A495430394E95
:10E4E6005355315256465167513045784C54417216
:10E4F60042676B71686B69473977304243514557BC
:10E506000A486D4A6F6232397461533571595778CA
:10E5160068633246755A476868636D467551476445
:10E526007459576C734C6D4E76625441674677301A
:10E53600794E5441334D6A45774E5451324D5452BB
:10E54600610A474138794D5449314D4459794E7ADB
:10E5560041314E4459784E466F7767623478437A34
:10E56600414A42674E5642415954416B6C4F4D5297
:10E57600517745675944565151494441744E515556
:10E5860068420A556B465453465253515445504DB2
:10E5960041304741315545427777475456564E519B
:10E5A6006B464A4D526B77467759445651514B4408
:10E5B6004242435345395054556C4E555652555167
:10E5C6006C4A500A533056534D526377465159445C
:10E5D6005651514C4441354A6231516753584A7934
:10E5E6006157646864476C76626A456C4D434D4773
:10E5F6004131554541777763625846306443356902
:10E60600614739760A62576C7159577868633246A2
:10E61600755A476868636D46754C6D4E766254450B
:10E62600744D4373474353714753496233445145CD
:10E636004A41525965596D6876623231704C6D7037
:10E64600686247467A0A5957356B61474679595782
:10E6560035415A32316861577775593239744D49A7
:10E666004942496A414E42676B71686B694739771F
:10E6760030424151454641414F43415138414D4950
:10E68600494243674B430A4151454171554F6366C1
:10E69600686D6F612B6677477230316A656B2B61E7
:10E6A60065696435334A4E417979642F4D54343661
:10E6B600434B5247312B6F696F3057724B53646629
:10E6C600556A38386B544D0A3031626541575543A7
:10E6D60050687A2B4E51567336422B61394E304470
:10E6E600586D70667161434E643830795A6256458A
:10E6F600324469346154416978677866324B4C4ECE
:10E70600563667483338322B0A4431486C38584EEF
:10E71600394D74734C6347347A32696A47532B35E3
:10E7260059517247787648576F7549396D6B5273F0
:10E7360035373333633374615449724A75515551D1
:10E7460077626F6A62416964330A67773478504347
:10E75600686631354E4871477A394F544B4A6A34A8
:10E76600625048674A353871567143473671612F92
:10E776004C637A755158317139744C63512F434C3F
:10E7860071644947547064746C370A6C33476D671B
:10E7960077526356714F474C6B50503751385A7504
:10E7A6004956396F2B734A395968382B7855506357
:10E7B600486C362F7068523771634257634D45591E
:10E7C6007266772B4F573052792B790A766D6879B6
:10E7D60050564169564F534C4E735A546C433264EB
:10E7E6006F6D724F64774944415141424D41304704
:10E7F6004353714753496233445145424377554128
:10E806004134494241514272637758420A50525943
:10E81600306B7354544A624B544D683671506A4398
:10E82600526E767230585871714F6C5A6C4143571C
:10E8360058532F61775345757657646B45527A372F
:10E84600696C316B6D63355471765941300A305AB3
:10E856006E495653714B44334F704F2B67664A7857
:10E866004D4438714E68476F787775594C366A64EF
:10E87600417748306B41736131786D753668575909
:10E886006269686A35624E6851706643694E0A313C
:10E89600696E71774B6A7A3170717170342F414CA1
:10E8A600664862307536424D4F6F33494C412F49A9
:10E8B6003054677231656630523776345131637140
:10E8C600754F796631523130446A44696A504E0A4E
:10E8D600337071665861702B535359342B703465FD
:10E8E600446D6252744B59583432386C496F36361F
:10E8F6006D7353465A383356466356434F31702B21
:10E90600354138434F413970794946752B6364491F
:10E916000A41622F5566483579386C7667435562E9
:10E926004F4E642F646C7845726574666655643024
:10E9360061695A5834595135446333746C3873518C
:10E946007566655979676F52422F77437A465071DB
:10E95600450A3645637079315A4E417754376377A5
:10E96600774B0A2D2D2D2D2D454E442043455254CF
:10E97600494649434154452D2D2D2D2D0A005379E5
:10E986007374656D20726573746172746564206654
:10E996006F7220416C6C2050686173652044657409
:10E9A600656374696F6E207769746820696E636F3A
:10E9B6006D706C6574652049727269676174696F00
:10E9C6006E20666F72206669656C642000537973E9
:10E9D60074656D2072657374617274656420666F08
:10E9E6007220506F77657220496E74657272757009
:10E9F60074207769746820696E636F6D706C6574D6
:10EA0600652049727269676174696F6E20666F72FC
:10EA1600206669656C64200053797374656D207295
:10EA2600657374617274656420696E2044696167F8
:10EA36006E6F73746963204D6F64652077697468BF
:10EA460020696E636F6D706C6574652049727269BA
:10EA5600676174696F6E20666F72206669656C64A3
:10EA6600200053797374656D2072657374617274D6
:10EA7600656420666F72204C6F7720506F776572E1
:10EA860020496E207769746820696E636F6D706CBB
:10EA96006574652049727269676174696F6E206674
:10EAA6006F72206669656C64200053797374656DB6
:10EAB6002072657374617274656420666F72205388
:10EAC6007461636B204572726F7220776974682077
:10EAD600696E636F6D706C657465204972726967E3
:10EAE6006174696F6E20666F72206669656C64205A
:10EAF6000053797374656D20726573746172746501
:10EB06006420666F72205744542054696D656F7592
:10EB160074207769746820696E636F6D706C6574B4
:10EB2600652049727269676174696F6E20666F72DB
:10EB3600206669656C6420004C6F772050686173AD
:10EB4600652063757272656E74206465746563749E
:10EB560065642C20616374696F6E732073757370BE
:10EB6600656E6465642C20706C65617365207265E2
:10EB760073746172742073797374656D005379735D
:10EB860074656D2041757468656E7469636174653A
:10EB960064207769746820506861736520666169CE
:10EBA6006C7572652C2073757370656E64696E671B
:10EBB60020616C6C20616374696F6E7300537973A6
:10EBC60074656D207265737461727465642077690B
:10EBD6007468207068617365206661696C7572651A
:10EBE6002C2073757370656E64696E6720616C6C3A
:10EBF60020616374696F6E730053797374656D2059
:10EC06007265736574206F636375727265642C2018
:10EC16006C6F67696E20636F6465207265736574D7
:10EC260020746F20466163746F7279207365747403
:10EC3600696E670053797374656D207265736574C8
:10EC4600206F636375727265642C204972726967FE
:10EC56006174696F6E2073657474696E672064658C
:10EC66006C65746564005068617365206661696CE3
:10EC76007572652064657465637465642C207375AC
:10EC86007370656E64696E6720616C6C2061637475
:10EC9600696F6E73000000300060009000C000F0E5
:10ECA60000200150018001B001E001100240027015
:10ECB60002A002D0020003300360039003C003F0F9
:10ECC6000353797374656D2072657374617274652C
:10ECD6006420666F7220416C6C20506861736520F9
:10ECE600446574656374696F6E0053797374656DFA
:10ECF6002072657374617274656420666F72205049
:10ED06006F77657220496E74657272757074005300
:10ED1600797374656D2072657374617274656420AD
:10ED2600696E20446961676E6F73746963206D6FE5
:10ED360064650053797374656D20726573746172CE
:10ED460074656420666F7220737461636B206572EC
:10ED5600726F720053797374656D20726573746196
:10ED66007274656420666F72205744542074696D0E
:10ED7600656F75740053797374656D20726573746D
:10ED8600617274656420666F72204C6F7720506FD5
:10ED9600776572005068617365206C6F73732064C9
:10EDA6006574656374656400416C6C2050686173BA
:10EDB60065206465746563746564002B434D515426
:10EDC60054434F4E4E4543543A20302C300049723E
:10EDD6007269676174696F6E204E6F3A0031323323
:10EDE600343536373839313200494E4A45435400B6
:10EDF60049444C45002B3931006F6B0041637469FF
:10EE06006F6E2053757370656E6465642E2049724B
:10EE16007269676174696F6E207363686564756C87
:10EE2600656420746F206E6578742064617920773C
:10EE3600697468206665727469676174696F6E20AB
:10EE4600666F72204669656C642000416374696F61
:10EE56006E2053757370656E6465642E20497272F8
:10EE660069676174696F6E207363686564756C6544
:10EE76006420746F206E65787420646179207769E8
:10EE86007468206665727469676174696F6E20665E
:10EE96006F72204669656C642000416374696F6E09
:10EEA6002053757370656E6465642E2049727269AD
:10EEB600676174696F6E207363686564756C6564F9
:10EEC60020746F206E6578742064756520646174A3
:10EED6006520666F72204669656C642000496E6A1B
:10EEE6006563746F722073746F70706564207769E0
:10EEF60074682066657274696C697A6572206C65DF
:10EF060076656C2073656E736F72206661696C75C9
:10EF1600726520666F72206669656C6420004163C5
:10EF260074696F6E2053757370656E6465642E2008
:10EF360049727269676174696F6E2073636865648C
:10EF4600756C656420746F206E65787420646179D1
:10EF560020666F72204669656C642000496E6A659A
:10EF660063746F722073746F707065642077697450
:10EF760068206C6F772066657274696C697A657251
:10EF8600206C6576656C20666F72206669656C64B8
:10EF960020004D6F6973747572652073656E736FAB
:10EFA60072206973206661696C65642C2056616CF9
:10EFB6007665207374617274656420666F7220666C
:10EFC60069656C642000416374696F6E20636F6DC0
:10EFD600706C6574656420666F7220647565206662
:10EFE60069656C64732E204D6F746F722073776938
:10EFF6007463686564206F66660057657420666989
:10F00600656C642064657465637465642E2056615E
:10F016006C7665206E6F74207374617274656420FB
:10F02600666F72206669656C64200056616C766551
:10F036002073746F7070656420776974686F757477
:10F0460020726573706F6E73652066726F6D2066D1
:10F0560069656C64200056616C766520736B697017
:10F066007065642077697468206E6F2072657370AE
:10F076006F6E73652066726F6D206669656C6420BD
:10F0860000506C65617365207265706C6163652004
:10F096004261747465727920666F72204669656C88
:10F0A60064200042617474657279205265736574D8
:10F0B600204F63637572656420666F7220466965CA
:10F0C6006C642000506C656173652073796E6320F3
:10F0D60073797374656D2074696D65206D616E75E5
:10F0E600616C6C790053797374656D2074696D6514
:10F0F6002069732073657420746F206C6F63616C74
:10F106002074696D6500496E6A6563746F72207359
:10F11600746F7070656420666F72206669656C64D2
:10F126002000496E6A6563746F722073746172742D
:10F13600656420666F72206669656C642000506C99
:10F1460065617365207265706C6163652052544316
:10F1560020626174746572790056616C76652073FD
:10F16600746F7070656420666F72206669656C6482
:10F17600200056616C766520737461727465642034
:10F18600666F72206669656C6420002A454E4142AE
:10F196004C45494E434F525245435423004C4F571A
:10F1A60042415454455259534C415645002A414315
:10F1B600544956454552524F5223002A454E414224
:10F1C6004C454552524F522300434D515454434FE0
:10F1D6004E4E4C4F5354002A4354534554455252B5
:10F1E6004F5223002A465245514552524F52230050
:10F1F6002A464545444552524F5223002A4441432C
:10F20600544956454F4B23002A44495341424C45E5
:10F216004F4B23002A4D41504552524F5223002A4C
:10F226004143544956454F4B23002A454E41424CD3
:10F23600454F4B23005245534554534C41564500C8
:10F246002A43544552524F5223002A414C495645AF
:10F256004F4B23002A41554552524F5223002A460E
:10F266004545444F4B23002A484F4C444F4B2300FF
:10F276002A4646554C4C23002A5246554C4C2300F0
:10F286002A4D41504F4B23002A5345544F4B2300E0
:10F29600455854524143540044414354495645004D
:10F2A60044495341424C45002A464C4F5723002AB5
:10F2B600524C4F5723002A43544F4B23002A4155A3
:10F2C6004F4B230053454E534F52004D4153544527
:10F2D600520041435449564500454E41424C450073
:10F2E600414C495645004552524F5200534C4156E7
:10F2F6004500435453455400464441544100414C53
:10F306004956450046524551004645454400544934
:10F316004D4500484F4C440041434B004F46460084
:10F3260043545600435420004D4150005345540069
:10F336004F4E0041550041542B434D515454434FB9
:10F346004E4E4543543D302C227463703A2F2F6D38
:10F356007174742E62686F6F6D696A616C61736136
:10F366006E64686172616E2E636F6D3A3138383340
:10F37600222C36343830302C312C22626A75557383
:10F386006572222C22426F6F6D69316D6F6F62223A
:10F396000D0A0041542B4347534F434B434F4E54A2
:10F3A6003D312C224950222C22434D4E4554220DEC
:10F3B6000A0041542B434D515454414343513D306F
:10F3C6002C224553503332220D0A000D0A41542B8C
:10F3D600434D5154545055423D302C312C36300D4E
:10F3E6000A004665727469676174696F6E204469C4
:10F3F6007361626C65643A0053797374656D20526B
:10F4060065736574204F6363757272656400537922
:10F416007374656D205265737461727465642057E8
:10F426006974680053757370656E64656420416C19
:10F436006C20416374696F6E73000D0A41542B434F
:10F446004D5154545041594C4F41443D302C00418C
:10F45600542B434D515454434F4E4E4543543D3027
:10F466002E2E2E002020202020202020202020208C
:10F476002020202020202020002A2A2A466163748A
:10F486006F72792052657365742A2A2A2A00537985
:10F496007374656D20436F6D706C6574652044618F
:10F4A60074610053797374656D2054696D65204EDF
:10F4B6006F742073796E630043757272656E742083
:10F4C600496E2046756C6C204C6F616400497272FF
:10F4D600692E4461746120436F6E66696775726553
:10F4E6006400466572742E4461746120436F6E66D3
:10F4F60069677572656400497272692E204E6F7471
:10F5060020436F6E66696775726564004972726939
:10F516002E206E6F7420636F6E6669677572656400
:10F526000053657175656E63652044656163746932
:10F536007661746564004E65772052544342617467
:10F546007465727920466F756E6400496E636F72DA
:10F5560072656374204C6F63616C2054696D65003D
:10F566004669656C642056616C766520496E416318
:10F57600746976650057697468204C6F7720466514
:10F5860072742E204C6576656C004E657874205337
:10F5960063686564756C6520536574204F6E00540E
:10F5A6006F2044656C657465204972726967617481
:10F5B600696F6E00496E204E6F204C6F6164204368
:10F5C6006F6E646974696F6E0052657365747469F1
:10F5D6006E6720436F6E74726F6C6C657200537940
:10F5E6007374656D20526573746172746564204628
:10F5F6006F72005374617274696E672050756C7314
:10F606006520636F756E740053796E63205379734A
:10F6160074656D204D616E75616C6C79004972720E
:10F6260069676174696F6E20436F6D706C65746590
:10F63600640041542B434D5154545355423D302C94
:10F6460032302C310D00497272692E20446174618A
:10F656002044697361626C656400466572742E208D
:10F66600446174612044697361626C656400466537
:10F67600727469676174696F6E2053746F70706518
:10F6860064005068617365204C6F73732044657421
:10F696006563746564004665727469676174696F51
:10F6A6006E20537461727465640046696C7472618D
:10F6B60074696F6E2053657175656E636500576971
:10F6C60074682053656E736F72204661696C75723B
:10F6D6006500436865636B696E672047534D205329
:10F6E60069676E616C00546F20436865636B2047E1
:10F6F600534D205369676E616C0042686F6F6D6988
:10F70600204A616C73616E64686172616E0057694C
:10F7160072654C6573732049727269676174696FAB
:10F726006E004C6F6164204375742D4F66662056DB
:10F73600616C756573004669656C6420426174741A
:10F7460065727920416C657274005265706C6163F4
:10F7560065205254432062617474657279004C6F5F
:10F766006164696E672053797374656D20446174B2
:10F7760061000D0A41542B434D515454544F504986
:10F78600433D302C0041542B4347534F434B434F8B
:10F796004E543D312E2E2E0045786974696E6720D1
:10F7A600446961676E6F737469630043757272654D
:10F7B6006E7420496E204E6F204C6F616400537941
:10F7C6007374656D2054696D652053796E63656445
:10F7D6000049727269676174696F6E20536B697054
:10F7E6007065640049727269676174696F6E20534F
:10F7F600746F707065640055736572204175746826
:10F80600656E746963617465640053657175656ED0
:10F816006365204163746976617465640057657435
:10F82600204669656C64204465746563746564008C
:10F8360049727269676174696F6E2053746172747C
:10F846006564004D6F746F72204C6F616420437560
:10F85600742D4F66660049727269676174696F6ECE
:10F866002052756E6E696E67005072657373205212
:10F876006573657420427574746F6E00546F20430F
:10F88600616C696272617465204D6F746F720053AA
:10F89600757370656E64696E6720416374696F6E17
:10F8A6007300466163746F727920436F64652052FA
:10F8B60065736574004E6F20446961676E6F73747B
:10F8C6006963204D656E75004D6F746F72205377B6
:10F8D600697463686564204F46460052544320426B
:10F8E600617474657279206973206C6F7700466F56
:10F8F60072204E6577204465766963652049440029
:10F90600497272692E2052657363686564756C6509
:10F9160064004E6F742041757468656E7469636126
:10F9260074656400497272692E204E6F7420537498
:10F9360061727465640053797374656D2052756ED7
:10F946006E696E6720496E00557365722052656751
:10F95600697374726174696F6E005365727665724D
:10F9660020436F6E6E656374696F6E0043616C69E8
:10F9760062726174696E67204D6F746F72004675AE
:10F986006C6C204C6F61642043757272656E7400F6
:10F996004C6F772050686173652043757272656E8F
:10F9A60074004665727469676174696F6E20416C94
:10F9B60065727400525443204261747465727920F2
:10F9C600416C65727400466F72205072696F72697D
:10F9D6007479204E6F3A0046657274692E20506F16
:10F9E6007374706F6E6564004472792052756E2070
:10F9F60064657465637465640053797374656D201A
:10FA06005265737461727465640057697468204E38
:10FA16006F20526573706F6E736500497272692E3E
:10FA26002069732052756E6E696E67004E65747735
:10FA36006F726B20537472656E67746800546F2022
:10FA460044656C6574652053797374656D00576100
:10FA56007465722046696C74726174696F6E004ECB
:10FA66006F20436F6E66696775726174696F6E00A9
:10FA7600466163746F72792053657474696E677337
:10FA860000497272692E2044617461205265736563
:10FA960074004665727469676174696F6E20466C9E
:10FAA6006F7700536574205375636365737366756A
:10FAB6006C6C790049727269676174696F6E204176
:10FAC6006C6572740041542B434D51545453544148
:10FAD60052540D0A0041542B434D51545441434353
:10FAE600512E2E2E00496E636F7272656374204428
:10FAF600617465200049727269676174696F6E206E
:10FB06004461746100497272692E20506F7374707B
:10FB16006F6E656400556E6B6E6F776E20436F6D0A
:10FB26006D616E6400466163746F72792050696E10
:10FB3600436F646500446961676E6F73746963201F
:10FB46004D6F646500466F756E64204C6F7720506C
:10FB56006861736500506861736520446574656308
:10FB660074696F6E004D6F697374757265205365A5
:10FB76006E736F7200506F77657220496E7465728E
:10FB860072757074004552524F5220496E204D5185
:10FB960054542000436F6E6E656374696E672074FB
:10FBA6006F200041542B434D5154545355422E2E31
:10FBB6002E0053657474696E672053797374656D8E
:10FBC60000466F72204669656C64204E6F3A2000CD
:10FBD6004552524F5220496E2047505253200046FC
:10FBE60065746368696E6720497272692E00466F94
:10FBF60072205072696F72697479203A0054696D87
:10FC060065722054696D65204F555400496E636FC7
:10FC160072726563742044617461004973204E6F8B
:10FC26007420456E61626C65640053657474696E18
:10FC360067204661696C656400436F6E74726F6C11
:10FC46002053797374656D00526573746172742004
:10FC560053797374656D0041757468656E74696374
:10FC66006174696F6E00546F2044656C657465201D
:10FC760055736572004665746368696E67204D6FDB
:10FC8600746F720041542B434D47443D312C340D63
:10FC96000A0041542B434D5154545354415254007D
:10FCA6002F6E6F74696669636174696F6E00466F63
:10FCB60072204669656C64204E6F2E004375727221
:10FCC600656E742054696D653A00466F7220466908
:10FCD600656C64204E6F3A00466F756E64204C6FFB
:10FCE600772052544300546F204C6F63616C20544C
:10FCF600696D65005068617365204661696C75724F
:10FD060065004669656C64204D617070696E6700B8
:10FD16004472792052756E20416C657274004154AC
:10FD26002B434E4D503D33380D0A0041542B43476B
:10FD360050414444520D0A004750525320456E61CB
:10FD4600626C6564004D5154542053657276696344
:10FD5600650047505253204E6574776F726B00539F
:10FD660065727665722054696D6520004E6F20526B
:10FD76006573706F6E7365200041542B434F50536B
:10FD86003D300D0A0041542B43545A553D310D0A5E
:10FD96000041542B434F50533D320D0A0041542B22
:10FDA60043475245473F0D0A007B227469746C65D0
:10FDB600223A202200222C22626F6479223A2022E3
:10FDC6000057616974696E6720466F7200537461EB
:10FDD600636B204572726F7200466163746F72794D
:10FDE600204B65790041542B435245473F0D0A008D
:10FDF60041542B434E4D503D33380041542B43471D
:10FE0600504144445200537562736372696265647B
:10FE16000041542B43434C4B3F0D0A005564796116
:10FE26006D69204C4C500052657374696E6720549E
:10FE36006F0054696D65204572726F720054696D6A
:10FE46006520416C65727400576174657220466C5A
:10FE56006F77002347455453454E534F5200415444
:10FE66002B434F50533D300041542B43545A553D7C
:10FE7600310041542B434F50533D320041542B43E4
:10FE8600475245473F005355425343524942450066
:10FE960046726F6D204D5154540056657279204755
:10FEA6006F6F64002F726573706F6E7365004578AF
:10FEB60063656C6C656E74004665746368696E672D
:10FEC600200046726F6D20475052530049732046FA
:10FED60061696C65640069732041637469766500C5
:10FEE6004C6F7720506F7765720046726571756545
:10FEF6006E63790041542B4353510D0A0053454E0E
:10FF060044494E47200041542B435245473F002F5A
:10FF1600636F6D6D616E64004D6F646572617465CB
:10FF260000456E61626C696E67004572726F722081
:10FF3600496E0056657279204C6F77004375727270
:10FF4600656E7420004465766963654944005365AF
:10FF56006C6563746564004665746368696E670002
:10FF66004665637468696E670044656C6574696E9E
:10FF7600670053657474696E670044727920527520
:10FF86006E004E6F7420536574004261747465721E
:10FF96007900415445300D0A0041542B435351001A
:10FFA600446174653A00414C49564500534C4156EC
:10FFB6004500506F6F720054494D4500234F464629
:10FFC600006E756C6C0031303025002564256300A9
:10FFD6004C4F5700234F4E00393625003937250040
:10FFE60039382500393925004E4F00415400227D0D
:0AFFF60000256400312500240000FE
:020000040001F9
:10000000000E0301EA6F000EEB6F000EEF6F000EA3
:10001000EE6F1E0E0101586F070EE7EC10F01BEC9F
:100020000FF0000E0101886F030E896F010E8A6FB9
:10003000040E8B6FEBECF7F0B0EC0EF00001B25158
:10004000D8A425EF80F027EF80F0C3EF80F0000EFA
:100050000101886F030E896F390E8A6FF30E8B6F63
:10006000000E8D6F020E8C6FF2ECF1F001018851E1
:100070008911D8A43EEF80F040EF80F097EF80F038
:10008000000E0001C46F400E0101886F020E896FDF
:10009000030E8A6F030E8B6F000E8D6F0C0E8C6F2C
:1000A00040EC07F024EC06F0010E0001B26F050EE3
:1000B0000301E56F0F0EE46FF10EE82EFED7E42F7B
:1000C000FCD7E52FFAD7A4EC0AF0020EC7EC10F02B
:1000D000030EC7EC10F0040EC7EC10F0FC0E01018B
:1000E0009F6FF80EA06F020EA16F32ECFAF08C0E2B
:1000F00001019F6FFF0EA06F030EA16F32ECFAF0AB
:10010000400E01019F6F020EA06F040EA16F32EC32
:10011000FAF0F40E0301E56F820EE46F050EE82E8F
:10012000FED7E42FFCD7E52FFAD7CAEF95F0020EE1
:10013000C7EC10F0030EC7EC10F0040EC7EC10F083
:10014000FC0E01019F6FF80EA06F020EA16F32EC42
:10015000FAF0300E01019F6FFC0EA06F030EA16F2D
:1001600032ECFAF0F40E0301E56F820EE46F050E37
:10017000E82EFED7E42FFCD7E52FFAD7000E0001BA
:10018000C46FCAEF95F0000E0101886F030E896FEE
:10019000390E8A6FF30E8B6F000E8D6F020E8C6F0F
:1001A000F2ECF1F0010188518911D8B4DAEF80F056
:1001B000DCEF80F0E5EF80F00001B151D8A4E3EF6F
:1001C00080F0E5EF80F064EF81F0000E0001C46F75
:1001D000030E0101886F030E896F7D0E8A6F010E79
:1001E0008B6F000E8D6F060E8C6FF2ECF1F001013B
:1001F00088518911D8A4FFEF80F001EF81F03BEF27
:1002000081F0010E0001B16F050E0301E56F0F0EC5
:10021000E46FF10EE82EFED7E42FFCD7E52FFAD7D6
:1002200004EC0CF0010EC7EC10F0020EC7EC10F05D
:10023000030EC7EC10F0040EC7EC10F04D0E0101D8
:100240009F6FFA0EA06F020EA16F32ECFAF0020E51
:1002500001019F6FF80EA06F030EA16F32ECFAF050
:10026000C30E0201F86FF20EF96F000EFA6FA6ECE2
:10027000D7F0CAEF95F0020EC7EC10F0030EC7ECF2
:1002800010F0040EC7EC10F04D0E01019F6FFA0E36
:10029000A06F020EA16F32ECFAF0180E01019F6FF1
:1002A000F90EA06F030EA16F32ECFAF0000E000100
:1002B000C46F5A0E0201F86FF20EF96F000EFA6F5A
:1002C000A6ECD7F0CAEF95F0000E0101886F030E7F
:1002D000896F040E8A6FF30E8B6F000E8D6F050E03
:1002E0008C6FF2ECF1F0010188518911D8A47BEFF9
:1002F00081F07DEF81F09DEF81F0000E0001C46F71
:10030000500E0201F86FF20EF96F000EFA6FA6ECB4
:10031000D7F0020EC7EC10F0030EC7EC10F0040E7D
:10032000C7EC10F0AC0E01019F6FFF0EA06F020E24
:10033000A16F32ECFAF0CAEF95F0000E886F030E51
:10034000896F320E8A6FF30E8B6F000E8D6F030E66
:100350008C6FF2ECF1F0010188518911D8A4B3EF50
:1003600081F0B5EF81F0E2EF84F0030E73EC08F05A
:100370000001C26F000E0301EF6F000EEE6F010E61
:10038000ED6F060E0001C46F000E0001C425D96E8A
:10039000DA6A030EDA22DF50E3EC0FF00009D8B47A
:1003A000D4EF81F0D6EF81F040EF83F0010E000131
:1003B000C425D96EDA6A030EDA22200EDE18D8B40C
:1003C000E4EF81F0E6EF81F0F5EF81F0010EC42556
:1003D000D96EDA6A030EDA22230EDE18D8A4F3EF00
:1003E00081F0F5EF81F016EF82F0000EC425D96E92
:1003F000DA6A030EDA22000EC425E16EE26A030E09
:10040000E222E750D00FDF6E000E0001C425D96E46
:10041000DA6A030EDA22DF500301E46FE451EE25BD
:10042000EE6F000EEF21EF6F74EF83F0000EC42526
:10043000D96EDA6A030EDA22000EC425E16EE26A92
:10044000030EE222E750D00FDF6E000EC425D96EF6
:10045000DA6A030EDA22DF500A0D000EC425D96EC7
:10046000DA6A030EDA22F3CFDFFFEEC388F1EFC3BF
:1004700089F1000E01018B6F0A0E8A6F69EC10F092
:1004800088C1EEF389C1EFF304EF82F00001C2519D
:100490002D0D640EF324D96E050EF420DA6EEEC332
:1004A000DEFFEFC3DDFF000E0301EF6F000EEE6F06
:1004B00072EF83F00001C2512D0D7E0EF324D96E30
:1004C000050EF420DA6EEEC3DFFF53EF82F0000179
:1004D000C2512D0D7F0EF324D96E050EF420DA6E75
:1004E000EEC3DFFF53EF82F00001C2512D0D800EED
:1004F000F324D96E050EF420DA6EEEC3DFFF53EF5E
:1005000082F00001C2512D0D600EF324D96E050E4C
:10051000F420DA6EEEC3DEFFEFC3DDFF53EF82F0AF
:100520000001C2512D0D620EF324D96E050EF42088
:10053000DA6EEEC3DEFFEFC3DDFF53EF82F00001A2
:10054000C2512D0D850EF324D96E050EF420DA6EFE
:10055000EEC3DFFF53EF82F00001C2512D0D870E75
:10056000F324D96E050EF420DA6EEEC3DFFFC2511C
:100570002D0D880EF324D96E050EF420DA6EEEC32D
:10058000DFFF53EF82F0EE517DECD2F0000E03015D
:10059000EF6F000EEE6F0001C2512D0D810EF3249E
:1005A000D96E050EF420DA6EA7C0DFFFC2512D0D03
:1005B000820EF324D96E050EF420DA6EB6C0DFFF8A
:1005C000C2512D0D830EF324D96E050EF420DA6E80
:1005D000B7C0DFFFC2512D0D890EF324D96E050E71
:1005E000F420DA6E000EDF6EC2512D0D8A0EF32458
:1005F000D96E050EF420DA6E010EDF6EC2512D0D9C
:10060000660EF324D96E050EF420DA6E000EDE6E4F
:10061000000EDD6EC2512D0D680EF324D96E050E4D
:10062000F420DA6E000EDE6E000EDD6EC2512D0D6E
:10063000840EF324D96E050EF420DA6E000EDF6E00
:10064000C2512D0D8B0EF324D96E050EF420DA6EF7
:10065000000EDF6EC2512D0D860EF324D96E050EED
:10066000F420DA6E000EDF6EC2512D0D8C0EF324D5
:10067000D96E050EF420DA6E000EDF6E72EF83F095
:100680000301ED51E46FE56BE551000AD8B44BEF7F
:1006900083F072EF83F0E451010AD8B446EF82F0A0
:1006A000030AD8B45AEF82F0010AD8B467EF82F097
:1006B000070AD8B474EF82F0010AD8B481EF82F04F
:1006C000030AD8B490EF82F0010AD8B49FEF82F009
:1006D0000F0AD8B4ACEF82F0010AD8B4C3EF82F0AD
:1006E00072EF83F00301ED2B0001C42B090E03010F
:1006F000ED657DEF83F07FEF83F0C4EF81F0090EAD
:100700000301E56F1E0EE46FE40EE82EFED7E42F22
:10071000FCD7E52FFAD700F00001C251020D9B0E65
:10072000F324F66EEC0EF420F76EF86A000EF82251
:100730000900F5CF8BF10A00F5CF8CF1C2512D0DD8
:10074000600EF32401018D6F050EF4208E6F5EECB8
:10075000E7F0090E0301E56F1E0EE46FE40EE82ECC
:10076000FED7E42FFCD7E52FFAD700F00001C251E5
:10077000020D9B0EF324F66EEC0EF420F76EF86A71
:10078000000EF8220900F5CF8BF10A00F5CF8CF1AD
:10079000C2512D0D600EF32401018D6F050EF42062
:1007A0008E6F68ECFDF0090E0301E56F1E0EE46F1D
:1007B000E40EE82EFED7E42FFCD7E52FFAD700F0A1
:1007C0000001C251020D9B0EF324F66EEC0EF420D4
:1007D000F76EF86A000EF8220900F5CF8BF10A00D7
:1007E000F5CF8CF1C2512D0D600EF32401018D6FF8
:1007F000050EF4208E6F86EC0BF0090E0301E56FF9
:100800001E0EE46FE40EE82EFED7E42FFCD7E52F92
:10081000FAD700F00001C251020D9B0EF324F66ED0
:10082000EC0EF420F76EF86A000EF8220900F5CFFE
:100830008BF10A00F5CF8CF1C2512D0D600EF3241F
:1008400001018D6F050EF4208E6FB0EC0BF0090ED8
:100850000301E56F1E0EE46FE40EE82EFED7E42FD1
:10086000FCD7E52FFAD700F00001C251020D9B0E14
:10087000F324F66EEC0EF420F76EF86A000EF82200
:100880000900F5CF8BF10A00F5CF8CF1C2512D0D87
:10089000600EF32401018D6F050EF4208E6F5CEC69
:1008A0000BF0090E0301E56F1E0EE46FE40EE82E57
:1008B000FED7E42FFCD7E52FFAD700F00001C25194
:1008C000020D9B0EF324F66EEC0EF420F76EF86A20
:1008D000000EF8220900F5CF8BF10A00F5CF8CF15C
:1008E000C2512D0D600EF32401018D6F050EF42011
:1008F0008E6F6AECBCF0090E0301E56F1E0EE46F0B
:10090000E40EE82EFED7E42FFCD7E52FFAD700F04F
:10091000000E0001C46F020EC7EC10F0030EC7EC0E
:1009200010F0040EC7EC10F0D30E01019F6FF40E0F
:10093000A06F020EA16F32ECFAF0F40E01019F6F6E
:10094000FB0EA06F030EA16F32ECFAF0110E010145
:10095000946F030E12EC0AF066EC0FF0C70E010163
:10096000E06F000EE16FF70EE26FFF0EE36F010E16
:100970000001C2250101E46FE56B000EE5237FEC69
:100980000CF0C70E0101886F000E896FDAEC0BF0D6
:1009900088C102F189C103F1C70E0101946F000EF5
:1009A000956F02C196F103C197F158EC0EF08E0ECF
:1009B0000201F86FF20EF96F000EFA6FA6ECD7F095
:1009C000CAEF95F0000E886F030E896F190E8A6FBB
:1009D000F30E8B6F000E8D6F040E8C6FF2ECF1F046
:1009E000010188518911D8A4F8EF84F0FAEF84F05E
:1009F000F2EF85F0040E73EC08F00001C26FC251F3
:100A00002D0D890EF324D96E050EF420DA6EDE0466
:100A1000D8A40DEF85F00FEF85F012EF85F0010EF1
:100A20000101456F0001C2512D0D8A0EF324D96ECC
:100A3000050EF420DA6E000EDF6EC2512D0D8B0E06
:100A4000F324D96E050EF420DA6EDE04D8A42BEF61
:100A500085F02DEF85F06EEF85F0C2512D0D8B0ED8
:100A6000F324D96E050EF420DA6E000EDF6E090E47
:100A70000301E56F1E0EE46FE40EE82EFED7E42FAF
:100A8000FCD7E52FFAD700F00001C251020D9B0EF2
:100A9000F324F66EEC0EF420F76EF86A000EF822DE
:100AA0000900F5CF8BF10A00F5CF8CF1C2512D0D65
:100AB000600EF32401018D6F050EF4208E6F6AEC39
:100AC000BCF0090E0301E56F1E0EE46FE40EE82E84
:100AD000FED7E42FFCD7E52FFAD700F00001C25172
:100AE000020D9B0EF324F66EEC0EF420F76EF86AFE
:100AF000000EF8220900F5CF8BF10A00F5CF8CF13A
:100B0000C2512D0D600EF32401018D6F050EF420EE
:100B10008E6F5CEC0BF0090E0301E56F1E0EE46FA7
:100B2000E40EE82EFED7E42FFCD7E52FFAD700F02D
:100B3000000E0001C46F020EC7EC10F0030EC7ECEC
:100B400010F0040EC7EC10F04C0E01019F6FF60E72
:100B5000A06F020EA16F32ECFAF0F40E01019F6F4C
:100B6000FB0EA06F030EA16F32ECFAF0110E010123
:100B7000946F030E12EC0AF066EC0FF0C70E010141
:100B8000E06F000EE16FF70EE26FFF0EE36F010EF4
:100B90000001C2250101E46FE56B000EE5237FEC47
:100BA0000CF0C70E0101886F000E896FDAEC0BF0B4
:100BB00088C102F189C103F1C70E0101946F000ED3
:100BC000956F02C196F103C197F158EC0EF06D0ECE
:100BD0000201F86FF20EF96F000EFA6FA6ECD7F073
:100BE000CAEF95F0000E886F030E896FDF0E8A6FD3
:100BF000F20E8B6F000E8D6F060E8C6FF2ECF1F023
:100C0000010188518911D8A408EF86F00AEF86F017
:100C1000A4EF89F0000E0301EF6F000EEE6F000EDF
:100C2000ED6F060E73EC08F00001C26FC2512D0D7E
:100C30008A0EF324D96E050EF420DA6EDF50D8A4A4
:100C400024EF86F026EF86F088EF86F0000EC46F62
:100C5000020EC7EC10F0030EC7EC10F0040EC7EC48
:100C600010F0FD0E01019F6FF40EA06F020EA16F38
:100C700032ECFAF0E80E01019F6FF30EA06F030E45
:100C8000A16F32ECFAF0CC0E01019F6FF90EA06F4C
:100C9000040EA16F32ECFAF0110E0101946F040EF4
:100CA00012EC0AF066EC0FF0C70E0101E06F000EC7
:100CB000E16FF70EE26FFF0EE36F010E0001C22538
:100CC0000101E46FE56B000EE5237FEC0CF0C70E2D
:100CD0000101886F000E896FDAEC0BF088C102F118
:100CE00089C103F1C70E0101946F000E956F02C117
:100CF00096F103C197F158EC0EF0C10E0201F86FA6
:100D0000F10EF96F000EFA6FA6ECD7F0CAEF95F06E
:100D1000090EC46F000E0001C425D96EDA6A030EF5
:100D2000DA22DF50E3EC0FF00009D8B49AEF86F036
:100D30009CEF86F00CEF87F0010E0001C425D96E00
:100D4000DA6A030EDA22200EDE18D8B4AAEF86F093
:100D5000ACEF86F0BBEF86F0010EC425D96EDA6ADF
:100D6000030EDA22230EDE18D8A4B9EF86F0BBEF0B
:100D700086F0DCEF86F0000EC425D96EDA6A030E29
:100D8000DA22000EC425E16EE26A030EE222E75089
:100D9000D00FDF6E000E0001C425D96EDA6A030E93
:100DA000DA22DF500301E46FE451EE25EE6F000E0E
:100DB000EF21EF6FF7EF88F0000EC425D96EDA6AE5
:100DC000030EDA22000EC425E16EE26A030EE2226F
:100DD000E750D00FDF6E000EC425D96EDA6A030E1D
:100DE000DA22DF500A0D000EC425D96EDA6A030E2E
:100DF000DA22F3CFDFFFEEC388F1EFC389F1000EF3
:100E000001018B6F0A0E8A6F69EC10F088C1EEF356
:100E100089C1EFF3CAEF86F00301ED2BAEEF88F046
:100E20000001C2512D0D660EF324D96E050EF4207B
:100E3000DA6EEEC3DEFFEFC3DDFF000E0301EF6FDE
:100E4000000EEE6FF7EF88F00001C2512D0D680E15
:100E5000F324D96E050EF420DA6EEEC3DEFFEFC385
:100E6000DDFF1DEF87F00001C2512D0D840EF3242C
:100E7000D96E050EF420DA6EEEC3DFFF1DEF87F0AA
:100E80000001C2512D0D6A0EF324D96E050EF42017
:100E9000DA6EEEC3DEFFEFC3DDFF1DEF87F000016A
:100EA000C2512D0D720EF324D96E050EF420DA6EA8
:100EB000EEC3DEFFEFC3DDFF1DEF87F00001C2517F
:100EC0002D0D7A0EF324D96E050EF420DA6EEEC3E2
:100ED000DFFF1DEF87F00001C2512D0D6C0EF324D2
:100EE000D96E050EF420DA6EEEC3DEFFEFC3DDFF30
:100EF0001DEF87F00001C2512D0D740EF324D96E41
:100F0000050EF420DA6EEEC3DEFFEFC3DDFF1DEF4A
:100F100087F00001C2512D0D7B0EF324D96E050E12
:100F2000F420DA6EEEC3DFFF1DEF87F00001C2513F
:100F30002D0D6E0EF324D96E050EF420DA6EEEC37D
:100F4000DEFFEFC3DDFF1DEF87F00001C2512D0D65
:100F5000760EF324D96E050EF420DA6EEEC3DEFFB2
:100F6000EFC3DDFF1DEF87F00001C2512D0D7C0E98
:100F7000F324D96E050EF420DA6EEEC3DFFF1DEF09
:100F800087F00001C2512D0D700EF324D96E050EAD
:100F9000F420DA6EEEC3DEFFEFC3DDFF1DEF87F056
:100FA0000001C2512D0D780EF324D96E050EF420E8
:100FB000DA6EEEC3DEFFEFC3DDFF1DEF87F0000149
:100FC000C2512D0D7D0EF324D96E050EF420DA6E7C
:100FD000EEC3DFFFC2512D0D860EF324D96E050E30
:100FE000F420DA6E000EDF6EC2512D0D8C0EF3244C
:100FF000D96E050EF420DA6E000EDF6E000E0301CE
:10100000EF6F000EEE6F0001C2512D0D640EF32440
:10101000D96E050EF420DA6EC2512D0D680EF32440
:10102000E16E050EF420E26EE6CFE6F3E5CFE7F3DE
:10103000C2512D0D660EF324E16E050EF420E26E12
:10104000E6CFE8F3E5CFE9F30301E651E827E751FE
:10105000E923DE50E85DDE50E959D8A032EF88F090
:1010600034EF88F0A1EF88F00001C2512D0D8B0EF6
:10107000F324D96E050EF420DA6E000EDF6E000E3A
:10108000C46F020EC7EC10F0030EC7EC10F0040E94
:10109000C7EC10F0120E01019F6FFC0EA06F020E44
:1010A000A16F32ECFAF0E80E01019F6FF30EA06F12
:1010B000030EA16F32ECFAF0CC0E01019F6FF90E16
:1010C000A06F040EA16F32ECFAF0110E0101946FC3
:1010D000040E12EC0AF066EC0FF0C70E0101E06F8F
:1010E000000EE16FF70EE26FFF0EE36F010E0001DD
:1010F000C2250101E46FE56B000EE5237FEC0CF0E7
:10110000C70E0101886F000E896FDAEC0BF088C101
:1011100002F189C103F1C70E0101946F000E956FB2
:1011200002C196F103C197F158EC0EF0910E020145
:10113000F86FF10EF96F000EFA6FA6ECD7F0F7EF2B
:1011400088F00001C2512D0D8B0EF324D96E050ECF
:10115000F420DA6E010EDF6EF7EF88F0ED51E46FE8
:10116000E56BE551000AD8B4B8EF88F0F7EF88F0E6
:10117000E451010AD8B410EF87F0030AD8B424EF81
:1011800087F0010AD8B433EF87F0070AD8B440EFEC
:1011900087F0010AD8B44FEF87F0030AD8B45EEFA6
:1011A00087F0010AD8B46BEF87F00F0AD8B47AEF52
:1011B00087F0010AD8B489EF87F0030AD8B496EF14
:1011C00087F0010AD8B4A5EF87F0070AD8B4B4EFC6
:1011D00087F0010AD8B4C1EF87F0030AD8B4D0EF82
:1011E00087F0010AD8B4DFEF87F0F7EF88F000014D
:1011F000C42B0E0E0301ED6500EF89F002EF89F0BC
:101200008AEF86F00001C2512D0D8B0EF324D96EAA
:10121000050EF420DA6EDF50D8B411EF89F013EF29
:1012200089F0CAEF95F0090E0301E56F1E0EE46F19
:10123000E40EE82EFED7E42FFCD7E52FFAD700F016
:101240000001C251020D9B0EF324F66EEC0EF42049
:10125000F76EF86A000EF8220900F5CF8BF10A004C
:10126000F5CF8CF1C2512D0D600EF32401018D6F6D
:10127000050EF4208E6F6AECBCF0090E0301E56FD9
:101280001E0EE46FE40EE82EFED7E42FFCD7E52F08
:10129000FAD700F0000E0001C46F020EC7EC10F088
:1012A000030EC7EC10F0040EC7EC10F0E80E0101BD
:1012B0009F6FF40EA06F020EA16F32ECFAF0CC0E0D
:1012C00001019F6FF90EA06F030EA16F32ECFAF0CF
:1012D000110E0101946F030E12EC0AF066EC0FF090
:1012E000C70E0101E06F000EE16FF70EE26FFF0E17
:1012F000E36F010E0001C2250101E46FE56B000EF2
:10130000E5237FEC0CF0C70E0101886F000E896F9A
:10131000DAEC0BF088C102F189C103F1C70E0101BB
:10132000946F000E956F02C196F103C197F158ECCE
:101330000EF0300E0201F86FF20EF96F000EFA6F28
:10134000A6ECD7F0CAEF95F0000E886F030E896FF8
:10135000A60E8A6FF20E8B6F000E8D6F070E8C6FCC
:10136000F2ECF1F0010188518911D8A4BAEF89F0AB
:10137000BCEF89F091EF8AF0070E73EC08F00001E2
:10138000C26FC2512D0D890EF324D96E050EF420C3
:10139000DA6EDE04D8A4CFEF89F0D1EF89F0E5EF63
:1013A00089F0C2512D0D860EF324D96E050EF4205E
:1013B000DA6E030EDE18D8B4E0EF89F0E2EF89F0C0
:1013C000E5EF89F0010E0101456F0001C2512D0DBD
:1013D0008B0EF324D96E050EF420DA6EDE04D8A449
:1013E000F4EF89F0F6EF89F0CAEF95F0C2512D0DB8
:1013F0008B0EF324D96E050EF420DA6E000EDF6E2C
:10140000090E0301E56F1E0EE46FE40EE82EFED711
:10141000E42FFCD7E52FFAD700F00001C251020DEE
:101420009B0EF324F66EEC0EF420F76EF86A000EB5
:10143000F8220900F5CF8BF10A00F5CF8CF1C251EB
:101440002D0D600EF32401018D6F050EF4208E6FBB
:101450006AECBCF0090E0301E56F1E0EE46FE40EAA
:10146000E82EFED7E42FFCD7E52FFAD700F0000EC8
:101470000001C46F020EC7EC10F0030EC7EC10F0B1
:10148000040EC7EC10F0600E01019F6FF60EA06F06
:10149000020EA16F32ECFAF0D00E01019F6FFC0E2C
:1014A000A06F030EA16F32ECFAF0110E0101946FE0
:1014B000030E12EC0AF066EC0FF0C70E0101E06FAC
:1014C000000EE16FF70EE26FFF0EE36F010E0001F9
:1014D000C2250101E46FE56B000EE5237FEC0CF003
:1014E000C70E0101886F000E896FDAEC0BF088C11E
:1014F00002F189C103F1C70E0101946F000E956FCF
:1015000002C196F103C197F158EC0EF00E0E0201E4
:10151000F86FF20EF96F000EFA6FA6ECD7F0CAEF73
:1015200095F0000E886F030E896FD80E8A6FF20E49
:101530008B6F000E8D6F060E8C6FF2ECF1F00101D7
:1015400088518911D8A4A7EF8AF0A9EF8AF0CCEFCF
:101550008BF0000E0301EF6F000EEE6F000EED6FCB
:10156000060E0001C46F000E0001C425D96EDA6AB0
:10157000030EDA22DF50E3EC0FF00009D8B4C3EF1A
:101580008AF0C5EF8AF035EF8BF0010E0001C4251B
:10159000D96EDA6A030EDA22200EDE18D8B4D3EF41
:1015A0008AF0D5EF8AF0E4EF8AF0010EC425D96EF7
:1015B000DA6A030EDA22230EDE18D8A4E2EF8AF0EC
:1015C000E4EF8AF005EF8BF0000EC425D96EDA6ADD
:1015D000030EDA22000EC425E16EE26A030EE22257
:1015E000E750D00FDF6E000E0001C425D96EDA6A15
:1015F000030EDA22DF500301E46FE451EE25EE6FB3
:10160000000EEF21EF6F7CEF8BF0000EC425D96E3A
:10161000DA6A030EDA22000EC425E16EE26A030ED6
:10162000E222E750D00FDF6E000EC425D96EDA6AD1
:10163000030EDA22DF500A0D000EC425D96EDA6AD5
:10164000030EDA22F3CFDFFFEEC388F1EFC389F197
:10165000000E01018B6F0A0E8A6F69EC10F088C1D1
:10166000EEF389C1EFF3F3EF8AF00301ED2B5BEFAB
:101670008BF0EEC352F1000EEF6F000EEE6F7CEFB9
:101680008BF0EEC3B5F03BEF8BF0EEC351F13BEFC7
:101690008BF0EEC3B4F03BEF8BF0EEC326F101010B
:1016A000276B000E0301EF6F000EEE6F010E0001BD
:1016B000AD6F7CEF8BF0ED51E46FE56BE551000A07
:1016C000D8B465EF8BF07CEF8BF0E451010AD8B40D
:1016D00039EF8BF0030AD8B441EF8BF0010AD8B48C
:1016E00045EF8BF0070AD8B449EF8BF0010AD8B464
:1016F0004DEF8BF07CEF8BF00001C42B040E030147
:10170000ED6585EF8BF087EF8BF0B3EF8AF0090E74
:101710000301E56F1E0EE46FE40EE82EFED7E42F02
:10172000FCD7E52FFAD700F02CECECF0090E030102
:10173000E56F1E0EE46FE40EE82EFED7E42FFCD713
:10174000E52FFAD700F0000E0001C46F020EC7ECBF
:1017500010F0030EC7EC10F0040EC7EC10F0540E9E
:1017600001019F6FFA0EA06F020EA16F32ECFAF02A
:10177000100E01019F6FF80EA06F030EA16F32ECE7
:10178000FAF0250E0201F86FF20EF96F000EFA6FF3
:10179000A6ECD7F0CAEF95F0000E886F030E896FA4
:1017A0009E0E8A6FF20E8B6F000E8D6F070E8C6F80
:1017B000F2ECF1F0010188518911D8A4E2EF8BF02D
:1017C000E4EF8BF02CEF8CF0000E0001AD6F090EF2
:1017D0000301E56F1E0EE46FE40EE82EFED7E42F42
:1017E000FCD7E52FFAD700F02CECECF0090E030142
:1017F000E56F1E0EE46FE40EE82EFED7E42FFCD753
:10180000E52FFAD700F0000E0001C46F020EC7ECFE
:1018100010F0030EC7EC10F0040EC7EC10F0540EDD
:1018200001019F6FFA0EA06F020EA16F32ECFAF069
:10183000270E01019F6FF50EA06F030EA16F32EC12
:10184000FAF0020E0201F86FF20EF96F000EFA6F55
:10185000A6ECD7F0CAEF95F0000E886F030E896FE3
:10186000FE0E8A6FF20E8B6F000E8D6F050E8C6F61
:10187000F2ECF1F0010188518911D8A442EF8CF00B
:1018800044EF8CF094EF8CF00001AD51D8B44BEFE5
:101890008CF04DEF8CF06CEF8CF0000EC46F020EEC
:1018A000C7EC10F0030EC7EC10F0040EC7EC10F0FC
:1018B000660E01019F6FFF0EA06F020EA16F32EC4A
:1018C000FAF0B00E01019F6FF60EA06F030EA16F2C
:1018D00032ECFAF0CAEF95F0000EC46F020EC7ECBE
:1018E00010F0030EC7EC10F0040EC7EC10F0540E0D
:1018F00001019F6FFA0EA06F020EA16F32ECFAF099
:10190000210E01019F6FFC0EA06F030EA16F32EC40
:10191000FAF0B30E0201F86FF10EF96F000EFA6FD4
:10192000A6ECD7F0CAEF95F0000E886F030E896F12
:101930000F0E8A6FF30E8B6F000E8D6F040E8C6F7F
:10194000F2ECF1F0010188518911D8A4AAEF8CF0D2
:10195000ACEF8CF0ECEF8DF0000E0301EF6F000E9A
:10196000EE6F000EED6F050E0001C46F000E00015A
:10197000C425D96EDA6A030EDA22DF50E3EC0FF0E9
:101980000009D8B4C6EF8CF0C8EF8CF056EF8DF09C
:10199000000E0001C425D96EDA6A030EDA22000EA9
:1019A000C425E16EE26A030EE222E750D00FDF6E3B
:1019B000000EC425D96EDA6A030EDA22DF50030165
:1019C000E46FE451EE6FEF6BEEC388F1EFC389F182
:1019D000000E01018B6F0A0E8A6F69EC10F088C14E
:1019E000EEF389C1EFF3010E0001C425D96EDA6A66
:1019F000030EDA22010EC425E16EE26A030EE22232
:101A0000E750D00FDF6E010EC425D96EDA6A030EDF
:101A1000DA22DF500301E46FE451EE25EE6F000E91
:101A2000EF21EF6FED2B31EF8DF0EEC3BAF0000E2A
:101A3000EF6F000EEE6F83EF8DF0EEC3BBF017EF8C
:101A40008DF0EEC3BCF017EF8DF0EEC3B9F017EFD9
:101A50008DF0EEC3B8F017EF8DF0EEC353F117EF32
:101A60008DF0ED51E46FE56BE551000AD8B43BEF22
:101A70008DF083EF8DF0E451010AD8B415EF8DF0AD
:101A8000030AD8B41DEF8DF0010AD8B421EF8DF010
:101A9000070AD8B425EF8DF0010AD8B429EF8DF0EC
:101AA000030AD8B42DEF8DF083EF8DF0000E000106
:101AB000C46F020EC7EC10F0030EC7EC10F0040E5A
